{
	"data": {
		"bytecode": {
			"linkReferences": {},
			"object": "60806040525f8060146101000a81548160ff02191690836001811115610028576100276101aa565b5b021790555060015f60156101000a81548160ff02191690836001811115610052576100516101aa565b5b0217905550348015610062575f80fd5b50335f73ffffffffffffffffffffffffffffffffffffffff168173ffffffffffffffffffffffffffffffffffffffff16036100d4575f6040517f1e4fbdf70000000000000000000000000000000000000000000000000000000081526004016100cb9190610216565b60405180910390fd5b6100e3816100e960201b60201c565b5061022f565b5f805f9054906101000a900473ffffffffffffffffffffffffffffffffffffffff169050815f806101000a81548173ffffffffffffffffffffffffffffffffffffffff021916908373ffffffffffffffffffffffffffffffffffffffff1602179055508173ffffffffffffffffffffffffffffffffffffffff168173ffffffffffffffffffffffffffffffffffffffff167f8be0079c531659141344cd1fd0a4f28419497f9722a3daafe3b4186f6b6457e060405160405180910390a35050565b7f4e487b71000000000000000000000000000000000000000000000000000000005f52602160045260245ffd5b5f73ffffffffffffffffffffffffffffffffffffffff82169050919050565b5f610200826101d7565b9050919050565b610210816101f6565b82525050565b5f6020820190506102295f830184610207565b92915050565b6135fb8061023c5f395ff3fe60806040526004361061012d575f3560e01c8063b6a324e0116100aa578063d45ed04c1161006e578063d45ed04c146103fd578063d6787f3914610439578063d7081e0314610475578063e3e436fb14610491578063e9dd8ed8146104d1578063f2fde38b1461050d5761013c565b8063b6a324e01461030f578063c9990aa614610319578063cf7496fb14610355578063cfe25e2014610399578063d3b37b40146103d55761013c565b8063707fb79e116100f1578063707fb79e14610252578063715018a6146102915780637d94ad98146102a75780638c9d9776146102bd5780638da5cb5b146102e55761013c565b806312c0a1ab146101465780631d3594bc14610162578063403a36961461019e578063514f7d2c146101da5780635c61f40e146102165761013c565b3661013c5761013a610535565b005b610144610535565b005b610160600480360381019061015b919061235e565b610537565b005b34801561016d575f80fd5b506101886004803603810190610183919061251f565b61053a565b604051610195919061264f565b60405180910390f35b3480156101a9575f80fd5b506101c460048036038101906101bf919061235e565b6107b1565b6040516101d19190612677565b60405180910390f35b3480156101e5575f80fd5b5061020060048036038101906101fb919061235e565b6107e1565b60405161020d9190612858565b60405180910390f35b348015610221575f80fd5b5061023c6004803603810190610237919061235e565b610b44565b60405161024991906128c0565b60405180910390f35b34801561025d575f80fd5b506102786004803603810190610273919061235e565b610be5565b60405161028894939291906128ef565b60405180910390f35b34801561029c575f80fd5b506102a5610c5c565b005b3480156102b2575f80fd5b506102bb610c6f565b005b3480156102c8575f80fd5b506102e360048036038101906102de9190612932565b610c71565b005b3480156102f0575f80fd5b506102f9610e39565b6040516103069190612677565b60405180910390f35b610317610535565b005b348015610324575f80fd5b5061033f600480360381019061033a919061235e565b610e60565b60405161034c91906128c0565b60405180910390f35b348015610360575f80fd5b5061037b6004803603810190610376919061235e565b610efb565b6040516103909998979695949392919061298c565b60405180910390f35b3480156103a4575f80fd5b506103bf60048036038101906103ba919061235e565b6111a7565b6040516103cc9190612a33565b60405180910390f35b3480156103e0575f80fd5b506103fb60048036038101906103f69190612a4c565b611463565b005b348015610408575f80fd5b50610423600480360381019061041e919061235e565b611536565b6040516104309190612a33565b60405180910390f35b348015610444575f80fd5b5061045f600480360381019061045a9190612b33565b611852565b60405161046c9190612a33565b60405180910390f35b61048f600480360381019061048a9190612b71565b611a54565b005b34801561049c575f80fd5b506104b760048036038101906104b29190612baf565b611a58565b6040516104c8959493929190612bda565b60405180910390f35b3480156104dc575f80fd5b506104f760048036038101906104f2919061235e565b611ca2565b6040516105049190612a33565b60405180910390f35b348015610518575f80fd5b50610533600480360381019061052e9190612baf565b611f26565b005b565b50565b5f806040518061012001604052808b73ffffffffffffffffffffffffffffffffffffffff1681526020018a73ffffffffffffffffffffffffffffffffffffffff1681526020018981526020018881526020018781526020018681526020018581526020018481526020015f60048111156105b7576105b661270e565b5b8152509050600281908060018154018082558091505060019003905f5260205f2090600902015f909190919091505f820151815f015f6101000a81548173ffffffffffffffffffffffffffffffffffffffff021916908373ffffffffffffffffffffffffffffffffffffffff1602179055506020820151816001015f6101000a81548173ffffffffffffffffffffffffffffffffffffffff021916908373ffffffffffffffffffffffffffffffffffffffff16021790555060408201518160020190816106849190612e41565b50606082015181600301908161069a9190612e41565b506080820151816004015560a0820151816005015560c08201518160060190816106c49190612e41565b5060e08201518160070190816106da9190612e41565b50610100820151816008015f6101000a81548160ff021916908360048111156107065761070561270e565b5b021790555050505f60016002805490506107209190612f3d565b905061072f825f015182611faa565b5061073e826020015182612078565b50815f015173ffffffffffffffffffffffffffffffffffffffff167ff0e1a812bb9cc111c5d37bb479884e858fbea6e05a54b4032ec67801392b90f883602001518460600151856080015160405161079893929190612f70565b60405180910390a2809250505098975050505050505050565b600a602052805f5260405f205f915054906101000a900473ffffffffffffffffffffffffffffffffffffffff1681565b6107e9612295565b60065f8381526020019081526020015f20604051806101200160405290815f82015f9054906101000a900473ffffffffffffffffffffffffffffffffffffffff1673ffffffffffffffffffffffffffffffffffffffff1673ffffffffffffffffffffffffffffffffffffffff168152602001600182015f9054906101000a900473ffffffffffffffffffffffffffffffffffffffff1673ffffffffffffffffffffffffffffffffffffffff1673ffffffffffffffffffffffffffffffffffffffff1681526020016002820180546108bf90612c74565b80601f01602080910402602001604051908101604052809291908181526020018280546108eb90612c74565b80156109365780601f1061090d57610100808354040283529160200191610936565b820191905f5260205f20905b81548152906001019060200180831161091957829003601f168201915b5050505050815260200160038201805461094f90612c74565b80601f016020809104026020016040519081016040528092919081815260200182805461097b90612c74565b80156109c65780601f1061099d576101008083540402835291602001916109c6565b820191905f5260205f20905b8154815290600101906020018083116109a957829003601f168201915b5050505050815260200160048201548152602001600582015481526020016006820180546109f390612c74565b80601f0160208091040260200160405190810160405280929190818152602001828054610a1f90612c74565b8015610a6a5780601f10610a4157610100808354040283529160200191610a6a565b820191905f5260205f20905b815481529060010190602001808311610a4d57829003601f168201915b50505050508152602001600782018054610a8390612c74565b80601f0160208091040260200160405190810160405280929190818152602001828054610aaf90612c74565b8015610afa5780601f10610ad157610100808354040283529160200191610afa565b820191905f5260205f20905b815481529060010190602001808311610add57829003601f168201915b50505050508152602001600882015f9054906101000a900460ff166004811115610b2757610b2661270e565b5b6004811115610b3957610b3861270e565b5b815250509050919050565b606060075f8381526020019081526020015f208054610b6290612c74565b80601f0160208091040260200160405190810160405280929190818152602001828054610b8e90612c74565b8015610bd95780601f10610bb057610100808354040283529160200191610bd9565b820191905f5260205f20905b815481529060010190602001808311610bbc57829003601f168201915b50505050509050919050565b6005602052805f5260405f205f91509050805f015490806001015f9054906101000a900473ffffffffffffffffffffffffffffffffffffffff1690806002015f9054906101000a900473ffffffffffffffffffffffffffffffffffffffff16908060020160149054906101000a900460ff16905084565b610c64612146565b610c6d5f6121cd565b565b565b80600a5f8281526020019081526020015f205f9054906101000a900473ffffffffffffffffffffffffffffffffffffffff1673ffffffffffffffffffffffffffffffffffffffff163373ffffffffffffffffffffffffffffffffffffffff1614610cd9575f80fd5b60016004811115610ced57610cec61270e565b5b60028381548110610d0157610d00612fac565b5b905f5260205f2090600902016008015f9054906101000a900460ff166004811115610d2f57610d2e61270e565b5b14610d6f576040517f08c379a0000000000000000000000000000000000000000000000000000000008152600401610d6690613049565b60405180910390fd5b8260028381548110610d8457610d83612fac565b5b905f5260205f2090600902016002019081610d9f9190612e41565b503373ffffffffffffffffffffffffffffffffffffffff167fe76cf74e69ec52c98a577258fecc28c0ca042124666247b7116d37caf0c4928360028481548110610dec57610deb612fac565b5b905f5260205f20906009020160020160028581548110610e0f57610e0e612fac565b5b905f5260205f209060090201600701604051610e2c9291906130e8565b60405180910390a2505050565b5f805f9054906101000a900473ffffffffffffffffffffffffffffffffffffffff16905090565b6007602052805f5260405f205f915090508054610e7c90612c74565b80601f0160208091040260200160405190810160405280929190818152602001828054610ea890612c74565b8015610ef35780601f10610eca57610100808354040283529160200191610ef3565b820191905f5260205f20905b815481529060010190602001808311610ed657829003601f168201915b505050505081565b6006602052805f5260405f205f91509050805f015f9054906101000a900473ffffffffffffffffffffffffffffffffffffffff1690806001015f9054906101000a900473ffffffffffffffffffffffffffffffffffffffff1690806002018054610f6490612c74565b80601f0160208091040260200160405190810160405280929190818152602001828054610f9090612c74565b8015610fdb5780601f10610fb257610100808354040283529160200191610fdb565b820191905f5260205f20905b815481529060010190602001808311610fbe57829003601f168201915b505050505090806003018054610ff090612c74565b80601f016020809104026020016040519081016040528092919081815260200182805461101c90612c74565b80156110675780601f1061103e57610100808354040283529160200191611067565b820191905f5260205f20905b81548152906001019060200180831161104a57829003601f168201915b50505050509080600401549080600501549080600601805461108890612c74565b80601f01602080910402602001604051908101604052809291908181526020018280546110b490612c74565b80156110ff5780601f106110d6576101008083540402835291602001916110ff565b820191905f5260205f20905b8154815290600101906020018083116110e257829003601f168201915b50505050509080600701805461111490612c74565b80601f016020809104026020016040519081016040528092919081815260200182805461114090612c74565b801561118b5780601f106111625761010080835404028352916020019161118b565b820191905f5260205f20905b81548152906001019060200180831161116e57829003601f168201915b505050505090806008015f9054906101000a900460ff16905089565b5f8160095f3373ffffffffffffffffffffffffffffffffffffffff1673ffffffffffffffffffffffffffffffffffffffff1681526020019081526020015f205f8281526020019081526020015f205f9054906101000a900460ff16611241576040517f08c379a00000000000000000000000000000000000000000000000000000000081526004016112389061318d565b60405180910390fd5b600160048111156112555761125461270e565b5b6002848154811061126957611268612fac565b5b905f5260205f2090600902016008015f9054906101000a900460ff1660048111156112975761129661270e565b5b146112d7576040517f08c379a00000000000000000000000000000000000000000000000000000000081526004016112ce9061321b565b60405180910390fd5b600283815481106112eb576112ea612fac565b5b905f5260205f20906009020160020160405160200161130a91906132c3565b604051602081830303815290604052805190602001206002848154811061133457611333612fac565b5b905f5260205f20906009020160070160405160200161135391906132c3565b60405160208183030381529060405280519060200120146113a9576040517f08c379a00000000000000000000000000000000000000000000000000000000081526004016113a090613349565b60405180910390fd5b6003600284815481106113bf576113be612fac565b5b905f5260205f2090600902016008015f6101000a81548160ff021916908360048111156113ef576113ee61270e565b5b02179055507fce557901062d2cd6275fdbe8d12ea52a477f2fc66d8c5fec5a993820180b6cd383604051611423919061264f565b60405180910390a16002838154811061143f5761143e612fac565b5b905f5260205f2090600902016008015f9054906101000a900460ff16915050919050565b5f6040518060a001604052808781526020018681526020018581526020018481526020018381525090508060045f3373ffffffffffffffffffffffffffffffffffffffff1673ffffffffffffffffffffffffffffffffffffffff1681526020019081526020015f205f820151815f0190816114de9190612e41565b5060208201518160010190816114f49190612e41565b506040820151816002015560608201518160030190816115149190612e41565b50608082015181600401908161152a9190612e41565b50905050505050505050565b5f8160095f3373ffffffffffffffffffffffffffffffffffffffff1673ffffffffffffffffffffffffffffffffffffffff1681526020019081526020015f205f8281526020019081526020015f205f9054906101000a900460ff166115d0576040517f08c379a00000000000000000000000000000000000000000000000000000000081526004016115c79061318d565b60405180910390fd5b600260048111156115e4576115e361270e565b5b600284815481106115f8576115f7612fac565b5b905f5260205f2090600902016008015f9054906101000a900460ff1660048111156116265761162561270e565b5b1415806116875750600360048111156116425761164161270e565b5b6002848154811061165657611655612fac565b5b905f5260205f2090600902016008015f9054906101000a900460ff1660048111156116845761168361270e565b5b14155b6116c6576040517f08c379a00000000000000000000000000000000000000000000000000000000081526004016116bd906133d7565b60405180910390fd5b600283815481106116da576116d9612fac565b5b905f5260205f2090600902016002016040516020016116f991906132c3565b604051602081830303815290604052805190602001206002848154811061172357611722612fac565b5b905f5260205f20906009020160070160405160200161174291906132c3565b6040516020818303038152906040528051906020012003611798576040517f08c379a000000000000000000000000000000000000000000000000000000000815260040161178f9061348b565b60405180910390fd5b6004600284815481106117ae576117ad612fac565b5b905f5260205f2090600902016008015f6101000a81548160ff021916908360048111156117de576117dd61270e565b5b02179055507f9524781ea03b1a019546916f30a82162bba951aaaa69ef7cef87ba96028b940683604051611812919061264f565b60405180910390a16002838154811061182e5761182d612fac565b5b905f5260205f2090600902016008015f9054906101000a900460ff16915050919050565b5f8260085f3373ffffffffffffffffffffffffffffffffffffffff1673ffffffffffffffffffffffffffffffffffffffff1681526020019081526020015f205f8281526020019081526020015f205f9054906101000a900460ff166118ec576040517f08c379a00000000000000000000000000000000000000000000000000000000081526004016118e390613519565b60405180910390fd5b5f60048111156118ff576118fe61270e565b5b6002858154811061191357611912612fac565b5b905f5260205f2090600902016008015f9054906101000a900460ff1660048111156119415761194061270e565b5b14611981576040517f08c379a000000000000000000000000000000000000000000000000000000000815260040161197890613049565b60405180910390fd5b60016002858154811061199757611996612fac565b5b905f5260205f2090600902016008015f6101000a81548160ff021916908360048111156119c7576119c661270e565b5b021790555082600a5f8681526020019081526020015f205f6101000a81548173ffffffffffffffffffffffffffffffffffffffff021916908373ffffffffffffffffffffffffffffffffffffffff16021790555060028481548110611a2f57611a2e612fac565b5b905f5260205f2090600902016008015f9054906101000a900460ff1691505092915050565b5050565b6004602052805f5260405f205f91509050805f018054611a7790612c74565b80601f0160208091040260200160405190810160405280929190818152602001828054611aa390612c74565b8015611aee5780601f10611ac557610100808354040283529160200191611aee565b820191905f5260205f20905b815481529060010190602001808311611ad157829003601f168201915b505050505090806001018054611b0390612c74565b80601f0160208091040260200160405190810160405280929190818152602001828054611b2f90612c74565b8015611b7a5780601f10611b5157610100808354040283529160200191611b7a565b820191905f5260205f20905b815481529060010190602001808311611b5d57829003601f168201915b505050505090806002015490806003018054611b9590612c74565b80601f0160208091040260200160405190810160405280929190818152602001828054611bc190612c74565b8015611c0c5780601f10611be357610100808354040283529160200191611c0c565b820191905f5260205f20905b815481529060010190602001808311611bef57829003601f168201915b505050505090806004018054611c2190612c74565b80601f0160208091040260200160405190810160405280929190818152602001828054611c4d90612c74565b8015611c985780601f10611c6f57610100808354040283529160200191611c98565b820191905f5260205f20905b815481529060010190602001808311611c7b57829003601f168201915b5050505050905085565b5f8160095f3373ffffffffffffffffffffffffffffffffffffffff1673ffffffffffffffffffffffffffffffffffffffff1681526020019081526020015f205f8281526020019081526020015f205f9054906101000a900460ff16611d3c576040517f08c379a0000000000000000000000000000000000000000000000000000000008152600401611d339061318d565b60405180910390fd5b60016004811115611d5057611d4f61270e565b5b60028481548110611d6457611d63612fac565b5b905f5260205f2090600902016008015f9054906101000a900460ff166004811115611d9257611d9161270e565b5b14611dd2576040517f08c379a0000000000000000000000000000000000000000000000000000000008152600401611dc99061321b565b60405180910390fd5b60028381548110611de657611de5612fac565b5b905f5260205f209060090201600201604051602001611e0591906132c3565b6040516020818303038152906040528051906020012060028481548110611e2f57611e2e612fac565b5b905f5260205f209060090201600701604051602001611e4e91906132c3565b6040516020818303038152906040528051906020012014611ea4576040517f08c379a0000000000000000000000000000000000000000000000000000000008152600401611e9b906135a7565b60405180910390fd5b6002808481548110611eb957611eb8612fac565b5b905f5260205f2090600902016008015f6101000a81548160ff02191690836004811115611ee957611ee861270e565b5b021790555060028381548110611f0257611f01612fac565b5b905f5260205f2090600902016008015f9054906101000a900460ff16915050919050565b611f2e612146565b5f73ffffffffffffffffffffffffffffffffffffffff168173ffffffffffffffffffffffffffffffffffffffff1603611f9e575f6040517f1e4fbdf7000000000000000000000000000000000000000000000000000000008152600401611f959190612677565b60405180910390fd5b611fa7816121cd565b50565b5f611fb3612146565b600160085f8573ffffffffffffffffffffffffffffffffffffffff1673ffffffffffffffffffffffffffffffffffffffff1681526020019081526020015f205f8481526020019081526020015f205f6101000a81548160ff02191690831515021790555060085f8473ffffffffffffffffffffffffffffffffffffffff1673ffffffffffffffffffffffffffffffffffffffff1681526020019081526020015f205f8381526020019081526020015f205f9054906101000a900460ff16905092915050565b5f612081612146565b600160095f8573ffffffffffffffffffffffffffffffffffffffff1673ffffffffffffffffffffffffffffffffffffffff1681526020019081526020015f205f8481526020019081526020015f205f6101000a81548160ff02191690831515021790555060095f8473ffffffffffffffffffffffffffffffffffffffff1673ffffffffffffffffffffffffffffffffffffffff1681526020019081526020015f205f8381526020019081526020015f205f9054906101000a900460ff16905092915050565b61214e61228e565b73ffffffffffffffffffffffffffffffffffffffff1661216c610e39565b73ffffffffffffffffffffffffffffffffffffffff16146121cb5761218f61228e565b6040517f118cdaa70000000000000000000000000000000000000000000000000000000081526004016121c29190612677565b60405180910390fd5b565b5f805f9054906101000a900473ffffffffffffffffffffffffffffffffffffffff169050815f806101000a81548173ffffffffffffffffffffffffffffffffffffffff021916908373ffffffffffffffffffffffffffffffffffffffff1602179055508173ffffffffffffffffffffffffffffffffffffffff168173ffffffffffffffffffffffffffffffffffffffff167f8be0079c531659141344cd1fd0a4f28419497f9722a3daafe3b4186f6b6457e060405160405180910390a35050565b5f33905090565b6040518061012001604052805f73ffffffffffffffffffffffffffffffffffffffff1681526020015f73ffffffffffffffffffffffffffffffffffffffff16815260200160608152602001606081526020015f81526020015f815260200160608152602001606081526020015f60048111156123145761231361270e565b5b81525090565b5f604051905090565b5f80fd5b5f80fd5b5f819050919050565b61233d8161232b565b8114612347575f80fd5b50565b5f8135905061235881612334565b92915050565b5f6020828403121561237357612372612323565b5b5f6123808482850161234a565b91505092915050565b5f73ffffffffffffffffffffffffffffffffffffffff82169050919050565b5f6123b282612389565b9050919050565b6123c2816123a8565b81146123cc575f80fd5b50565b5f813590506123dd816123b9565b92915050565b5f80fd5b5f80fd5b5f601f19601f8301169050919050565b7f4e487b71000000000000000000000000000000000000000000000000000000005f52604160045260245ffd5b612431826123eb565b810181811067ffffffffffffffff821117156124505761244f6123fb565b5b80604052505050565b5f61246261231a565b905061246e8282612428565b919050565b5f67ffffffffffffffff82111561248d5761248c6123fb565b5b612496826123eb565b9050602081019050919050565b828183375f83830152505050565b5f6124c36124be84612473565b612459565b9050828152602081018484840111156124df576124de6123e7565b5b6124ea8482856124a3565b509392505050565b5f82601f830112612506576125056123e3565b5b81356125168482602086016124b1565b91505092915050565b5f805f805f805f80610100898b03121561253c5761253b612323565b5b5f6125498b828c016123cf565b985050602061255a8b828c016123cf565b975050604089013567ffffffffffffffff81111561257b5761257a612327565b5b6125878b828c016124f2565b965050606089013567ffffffffffffffff8111156125a8576125a7612327565b5b6125b48b828c016124f2565b95505060806125c58b828c0161234a565b94505060a06125d68b828c0161234a565b93505060c089013567ffffffffffffffff8111156125f7576125f6612327565b5b6126038b828c016124f2565b92505060e089013567ffffffffffffffff81111561262457612623612327565b5b6126308b828c016124f2565b9150509295985092959890939650565b6126498161232b565b82525050565b5f6020820190506126625f830184612640565b92915050565b612671816123a8565b82525050565b5f60208201905061268a5f830184612668565b92915050565b612699816123a8565b82525050565b5f81519050919050565b5f82825260208201905092915050565b8281835e5f83830152505050565b5f6126d18261269f565b6126db81856126a9565b93506126eb8185602086016126b9565b6126f4816123eb565b840191505092915050565b6127088161232b565b82525050565b7f4e487b71000000000000000000000000000000000000000000000000000000005f52602160045260245ffd5b6005811061274c5761274b61270e565b5b50565b5f81905061275c8261273b565b919050565b5f61276b8261274f565b9050919050565b61277b81612761565b82525050565b5f61012083015f8301516127975f860182612690565b5060208301516127aa6020860182612690565b50604083015184820360408601526127c282826126c7565b915050606083015184820360608601526127dc82826126c7565b91505060808301516127f160808601826126ff565b5060a083015161280460a08601826126ff565b5060c083015184820360c086015261281c82826126c7565b91505060e083015184820360e086015261283682826126c7565b91505061010083015161284d610100860182612772565b508091505092915050565b5f6020820190508181035f8301526128708184612781565b905092915050565b5f82825260208201905092915050565b5f6128928261269f565b61289c8185612878565b93506128ac8185602086016126b9565b6128b5816123eb565b840191505092915050565b5f6020820190508181035f8301526128d88184612888565b905092915050565b6128e981612761565b82525050565b5f6080820190506129025f830187612640565b61290f6020830186612668565b61291c6040830185612668565b61292960608301846128e0565b95945050505050565b5f806040838503121561294857612947612323565b5b5f83013567ffffffffffffffff81111561296557612964612327565b5b612971858286016124f2565b92505060206129828582860161234a565b9150509250929050565b5f610120820190506129a05f83018c612668565b6129ad602083018b612668565b81810360408301526129bf818a612888565b905081810360608301526129d38189612888565b90506129e26080830188612640565b6129ef60a0830187612640565b81810360c0830152612a018186612888565b905081810360e0830152612a158185612888565b9050612a256101008301846128e0565b9a9950505050505050505050565b5f602082019050612a465f8301846128e0565b92915050565b5f805f805f60a08688031215612a6557612a64612323565b5b5f86013567ffffffffffffffff811115612a8257612a81612327565b5b612a8e888289016124f2565b955050602086013567ffffffffffffffff811115612aaf57612aae612327565b5b612abb888289016124f2565b9450506040612acc8882890161234a565b935050606086013567ffffffffffffffff811115612aed57612aec612327565b5b612af9888289016124f2565b925050608086013567ffffffffffffffff811115612b1a57612b19612327565b5b612b26888289016124f2565b9150509295509295909350565b5f8060408385031215612b4957612b48612323565b5b5f612b568582860161234a565b9250506020612b67858286016123cf565b9150509250929050565b5f8060408385031215612b8757612b86612323565b5b5f612b94858286016123cf565b9250506020612ba58582860161234a565b9150509250929050565b5f60208284031215612bc457612bc3612323565b5b5f612bd1848285016123cf565b91505092915050565b5f60a0820190508181035f830152612bf28188612888565b90508181036020830152612c068187612888565b9050612c156040830186612640565b8181036060830152612c278185612888565b90508181036080830152612c3b8184612888565b90509695505050505050565b7f4e487b71000000000000000000000000000000000000000000000000000000005f52602260045260245ffd5b5f6002820490506001821680612c8b57607f821691505b602082108103612c9e57612c9d612c47565b5b50919050565b5f819050815f5260205f209050919050565b5f6020601f8301049050919050565b5f82821b905092915050565b5f60088302612d007fffffffffffffffffffffffffffffffffffffffffffffffffffffffffffffffff82612cc5565b612d0a8683612cc5565b95508019841693508086168417925050509392505050565b5f819050919050565b5f612d45612d40612d3b8461232b565b612d22565b61232b565b9050919050565b5f819050919050565b612d5e83612d2b565b612d72612d6a82612d4c565b848454612cd1565b825550505050565b5f90565b612d86612d7a565b612d91818484612d55565b505050565b5b81811015612db457612da95f82612d7e565b600181019050612d97565b5050565b601f821115612df957612dca81612ca4565b612dd384612cb6565b81016020851015612de2578190505b612df6612dee85612cb6565b830182612d96565b50505b505050565b5f82821c905092915050565b5f612e195f1984600802612dfe565b1980831691505092915050565b5f612e318383612e0a565b9150826002028217905092915050565b612e4a8261269f565b67ffffffffffffffff811115612e6357612e626123fb565b5b612e6d8254612c74565b612e78828285612db8565b5f60209050601f831160018114612ea9575f8415612e97578287015190505b612ea18582612e26565b865550612f08565b601f198416612eb786612ca4565b5f5b82811015612ede57848901518255600182019150602085019450602081019050612eb9565b86831015612efb5784890151612ef7601f891682612e0a565b8355505b6001600288020188555050505b505050505050565b7f4e487b71000000000000000000000000000000000000000000000000000000005f52601160045260245ffd5b5f612f478261232b565b9150612f528361232b565b9250828203905081811115612f6a57612f69612f10565b5b92915050565b5f606082019050612f835f830186612668565b8181036020830152612f958185612888565b9050612fa46040830184612640565b949350505050565b7f4e487b71000000000000000000000000000000000000000000000000000000005f52603260045260245ffd5b7f44656c69657665727920737461747573206d75737420626520696e2050656e645f8201527f696e6720737461746520746f2073686970000000000000000000000000000000602082015250565b5f613033603183612878565b915061303e82612fd9565b604082019050919050565b5f6020820190508181035f83015261306081613027565b9050919050565b5f815461307381612c74565b61307d8186612878565b9450600182165f811461309757600181146130ad576130df565b60ff1983168652811515602002860193506130df565b6130b685612ca4565b5f5b838110156130d7578154818901526001820191506020810190506130b8565b808801955050505b50505092915050565b5f6040820190508181035f8301526131008185613067565b905081810360208301526131148184613067565b90509392505050565b7f41646472657373206e6f7420417574686f72697a6564205265636965766572205f8201527f666f7220746869732042696c6c206f66204c616e64696e672049440000000000602082015250565b5f613177603b83612878565b91506131828261311d565b604082019050919050565b5f6020820190508181035f8301526131a48161316b565b9050919050565b7f44656c69657665727920737461747573206d75737420626520696e20536869705f8201527f70696e6720737461746520746f20736869700000000000000000000000000000602082015250565b5f613205603283612878565b9150613210826131ab565b604082019050919050565b5f6020820190508181035f830152613232816131f9565b9050919050565b5f81905092915050565b5f815461324f81612c74565b6132598186613239565b9450600182165f81146132735760018114613288576132ba565b60ff19831686528115158202860193506132ba565b61329185612ca4565b5f5b838110156132b257815481890152600182019150602081019050613293565b838801955050505b50505092915050565b5f6132ce8284613243565b915081905092915050565b7f43757272656e74206c6f636174696f6e206f6620636172676f206d75737420625f8201527f652061742066696e616c2064657374696e6174696f6e20746f2072656a656374602082015250565b5f613333604083612878565b915061333e826132d9565b604082019050919050565b5f6020820190508181035f83015261336081613327565b9050919050565b7f44656c6965766572792063616e6e6f74206265206163636570746564206f72205f8201527f72656a656374656420696e206f7264657220746f2063616e63656c0000000000602082015250565b5f6133c1603b83612878565b91506133cc82613367565b604082019050919050565b5f6020820190508181035f8301526133ee816133b5565b9050919050565b7f43757272656e74206c6f636174696f6e206f6620636172676f2063616e6e6f745f8201527f2062652061742066696e616c2064657374696e6174696f6e20746f2063616e6360208201527f656c000000000000000000000000000000000000000000000000000000000000604082015250565b5f613475604283612878565b9150613480826133f5565b606082019050919050565b5f6020820190508181035f8301526134a281613469565b9050919050565b7f41646472657373206e6f7420417574686f72697a65642053656e64657220666f5f8201527f7220746869732042696c6c206f66204c616e64696e6720494400000000000000602082015250565b5f613503603983612878565b915061350e826134a9565b604082019050919050565b5f6020820190508181035f830152613530816134f7565b9050919050565b7f43757272656e74206c6f636174696f6e206f6620636172676f206d75737420625f8201527f652061742066696e616c2064657374696e6174696f6e20746f20616363657074602082015250565b5f613591604083612878565b915061359c82613537565b604082019050919050565b5f6020820190508181035f8301526135be81613585565b905091905056fea264697066735822122032ea946452a723c4600f10f72b9e8dd5fdd0e3f357a2189c335f1d37615c596764736f6c634300081a0033",
			"opcodes": "PUSH1 0x80 PUSH1 0x40 MSTORE PUSH0 DUP1 PUSH1 0x14 PUSH2 0x100 EXP DUP2 SLOAD DUP2 PUSH1 0xFF MUL NOT AND SWAP1 DUP4 PUSH1 0x1 DUP2 GT ISZERO PUSH2 0x28 JUMPI PUSH2 0x27 PUSH2 0x1AA JUMP JUMPDEST JUMPDEST MUL OR SWAP1 SSTORE POP PUSH1 0x1 PUSH0 PUSH1 0x15 PUSH2 0x100 EXP DUP2 SLOAD DUP2 PUSH1 0xFF MUL NOT AND SWAP1 DUP4 PUSH1 0x1 DUP2 GT ISZERO PUSH2 0x52 JUMPI PUSH2 0x51 PUSH2 0x1AA JUMP JUMPDEST JUMPDEST MUL OR SWAP1 SSTORE POP CALLVALUE DUP1 ISZERO PUSH2 0x62 JUMPI PUSH0 DUP1 REVERT JUMPDEST POP CALLER PUSH0 PUSH20 0xFFFFFFFFFFFFFFFFFFFFFFFFFFFFFFFFFFFFFFFF AND DUP2 PUSH20 0xFFFFFFFFFFFFFFFFFFFFFFFFFFFFFFFFFFFFFFFF AND SUB PUSH2 0xD4 JUMPI PUSH0 PUSH1 0x40 MLOAD PUSH32 0x1E4FBDF700000000000000000000000000000000000000000000000000000000 DUP2 MSTORE PUSH1 0x4 ADD PUSH2 0xCB SWAP2 SWAP1 PUSH2 0x216 JUMP JUMPDEST PUSH1 0x40 MLOAD DUP1 SWAP2 SUB SWAP1 REVERT JUMPDEST PUSH2 0xE3 DUP2 PUSH2 0xE9 PUSH1 0x20 SHL PUSH1 0x20 SHR JUMP JUMPDEST POP PUSH2 0x22F JUMP JUMPDEST PUSH0 DUP1 PUSH0 SWAP1 SLOAD SWAP1 PUSH2 0x100 EXP SWAP1 DIV PUSH20 0xFFFFFFFFFFFFFFFFFFFFFFFFFFFFFFFFFFFFFFFF AND SWAP1 POP DUP2 PUSH0 DUP1 PUSH2 0x100 EXP DUP2 SLOAD DUP2 PUSH20 0xFFFFFFFFFFFFFFFFFFFFFFFFFFFFFFFFFFFFFFFF MUL NOT AND SWAP1 DUP4 PUSH20 0xFFFFFFFFFFFFFFFFFFFFFFFFFFFFFFFFFFFFFFFF AND MUL OR SWAP1 SSTORE POP DUP2 PUSH20 0xFFFFFFFFFFFFFFFFFFFFFFFFFFFFFFFFFFFFFFFF AND DUP2 PUSH20 0xFFFFFFFFFFFFFFFFFFFFFFFFFFFFFFFFFFFFFFFF AND PUSH32 0x8BE0079C531659141344CD1FD0A4F28419497F9722A3DAAFE3B4186F6B6457E0 PUSH1 0x40 MLOAD PUSH1 0x40 MLOAD DUP1 SWAP2 SUB SWAP1 LOG3 POP POP JUMP JUMPDEST PUSH32 0x4E487B7100000000000000000000000000000000000000000000000000000000 PUSH0 MSTORE PUSH1 0x21 PUSH1 0x4 MSTORE PUSH1 0x24 PUSH0 REVERT JUMPDEST PUSH0 PUSH20 0xFFFFFFFFFFFFFFFFFFFFFFFFFFFFFFFFFFFFFFFF DUP3 AND SWAP1 POP SWAP2 SWAP1 POP JUMP JUMPDEST PUSH0 PUSH2 0x200 DUP3 PUSH2 0x1D7 JUMP JUMPDEST SWAP1 POP SWAP2 SWAP1 POP JUMP JUMPDEST PUSH2 0x210 DUP2 PUSH2 0x1F6 JUMP JUMPDEST DUP3 MSTORE POP POP JUMP JUMPDEST PUSH0 PUSH1 0x20 DUP3 ADD SWAP1 POP PUSH2 0x229 PUSH0 DUP4 ADD DUP5 PUSH2 0x207 JUMP JUMPDEST SWAP3 SWAP2 POP POP JUMP JUMPDEST PUSH2 0x35FB DUP1 PUSH2 0x23C PUSH0 CODECOPY PUSH0 RETURN INVALID PUSH1 0x80 PUSH1 0x40 MSTORE PUSH1 0x4 CALLDATASIZE LT PUSH2 0x12D JUMPI PUSH0 CALLDATALOAD PUSH1 0xE0 SHR DUP1 PUSH4 0xB6A324E0 GT PUSH2 0xAA JUMPI DUP1 PUSH4 0xD45ED04C GT PUSH2 0x6E JUMPI DUP1 PUSH4 0xD45ED04C EQ PUSH2 0x3FD JUMPI DUP1 PUSH4 0xD6787F39 EQ PUSH2 0x439 JUMPI DUP1 PUSH4 0xD7081E03 EQ PUSH2 0x475 JUMPI DUP1 PUSH4 0xE3E436FB EQ PUSH2 0x491 JUMPI DUP1 PUSH4 0xE9DD8ED8 EQ PUSH2 0x4D1 JUMPI DUP1 PUSH4 0xF2FDE38B EQ PUSH2 0x50D JUMPI PUSH2 0x13C JUMP JUMPDEST DUP1 PUSH4 0xB6A324E0 EQ PUSH2 0x30F JUMPI DUP1 PUSH4 0xC9990AA6 EQ PUSH2 0x319 JUMPI DUP1 PUSH4 0xCF7496FB EQ PUSH2 0x355 JUMPI DUP1 PUSH4 0xCFE25E20 EQ PUSH2 0x399 JUMPI DUP1 PUSH4 0xD3B37B40 EQ PUSH2 0x3D5 JUMPI PUSH2 0x13C JUMP JUMPDEST DUP1 PUSH4 0x707FB79E GT PUSH2 0xF1 JUMPI DUP1 PUSH4 0x707FB79E EQ PUSH2 0x252 JUMPI DUP1 PUSH4 0x715018A6 EQ PUSH2 0x291 JUMPI DUP1 PUSH4 0x7D94AD98 EQ PUSH2 0x2A7 JUMPI DUP1 PUSH4 0x8C9D9776 EQ PUSH2 0x2BD JUMPI DUP1 PUSH4 0x8DA5CB5B EQ PUSH2 0x2E5 JUMPI PUSH2 0x13C JUMP JUMPDEST DUP1 PUSH4 0x12C0A1AB EQ PUSH2 0x146 JUMPI DUP1 PUSH4 0x1D3594BC EQ PUSH2 0x162 JUMPI DUP1 PUSH4 0x403A3696 EQ PUSH2 0x19E JUMPI DUP1 PUSH4 0x514F7D2C EQ PUSH2 0x1DA JUMPI DUP1 PUSH4 0x5C61F40E EQ PUSH2 0x216 JUMPI PUSH2 0x13C JUMP JUMPDEST CALLDATASIZE PUSH2 0x13C JUMPI PUSH2 0x13A PUSH2 0x535 JUMP JUMPDEST STOP JUMPDEST PUSH2 0x144 PUSH2 0x535 JUMP JUMPDEST STOP JUMPDEST PUSH2 0x160 PUSH1 0x4 DUP1 CALLDATASIZE SUB DUP2 ADD SWAP1 PUSH2 0x15B SWAP2 SWAP1 PUSH2 0x235E JUMP JUMPDEST PUSH2 0x537 JUMP JUMPDEST STOP JUMPDEST CALLVALUE DUP1 ISZERO PUSH2 0x16D JUMPI PUSH0 DUP1 REVERT JUMPDEST POP PUSH2 0x188 PUSH1 0x4 DUP1 CALLDATASIZE SUB DUP2 ADD SWAP1 PUSH2 0x183 SWAP2 SWAP1 PUSH2 0x251F JUMP JUMPDEST PUSH2 0x53A JUMP JUMPDEST PUSH1 0x40 MLOAD PUSH2 0x195 SWAP2 SWAP1 PUSH2 0x264F JUMP JUMPDEST PUSH1 0x40 MLOAD DUP1 SWAP2 SUB SWAP1 RETURN JUMPDEST CALLVALUE DUP1 ISZERO PUSH2 0x1A9 JUMPI PUSH0 DUP1 REVERT JUMPDEST POP PUSH2 0x1C4 PUSH1 0x4 DUP1 CALLDATASIZE SUB DUP2 ADD SWAP1 PUSH2 0x1BF SWAP2 SWAP1 PUSH2 0x235E JUMP JUMPDEST PUSH2 0x7B1 JUMP JUMPDEST PUSH1 0x40 MLOAD PUSH2 0x1D1 SWAP2 SWAP1 PUSH2 0x2677 JUMP JUMPDEST PUSH1 0x40 MLOAD DUP1 SWAP2 SUB SWAP1 RETURN JUMPDEST CALLVALUE DUP1 ISZERO PUSH2 0x1E5 JUMPI PUSH0 DUP1 REVERT JUMPDEST POP PUSH2 0x200 PUSH1 0x4 DUP1 CALLDATASIZE SUB DUP2 ADD SWAP1 PUSH2 0x1FB SWAP2 SWAP1 PUSH2 0x235E JUMP JUMPDEST PUSH2 0x7E1 JUMP JUMPDEST PUSH1 0x40 MLOAD PUSH2 0x20D SWAP2 SWAP1 PUSH2 0x2858 JUMP JUMPDEST PUSH1 0x40 MLOAD DUP1 SWAP2 SUB SWAP1 RETURN JUMPDEST CALLVALUE DUP1 ISZERO PUSH2 0x221 JUMPI PUSH0 DUP1 REVERT JUMPDEST POP PUSH2 0x23C PUSH1 0x4 DUP1 CALLDATASIZE SUB DUP2 ADD SWAP1 PUSH2 0x237 SWAP2 SWAP1 PUSH2 0x235E JUMP JUMPDEST PUSH2 0xB44 JUMP JUMPDEST PUSH1 0x40 MLOAD PUSH2 0x249 SWAP2 SWAP1 PUSH2 0x28C0 JUMP JUMPDEST PUSH1 0x40 MLOAD DUP1 SWAP2 SUB SWAP1 RETURN JUMPDEST CALLVALUE DUP1 ISZERO PUSH2 0x25D JUMPI PUSH0 DUP1 REVERT JUMPDEST POP PUSH2 0x278 PUSH1 0x4 DUP1 CALLDATASIZE SUB DUP2 ADD SWAP1 PUSH2 0x273 SWAP2 SWAP1 PUSH2 0x235E JUMP JUMPDEST PUSH2 0xBE5 JUMP JUMPDEST PUSH1 0x40 MLOAD PUSH2 0x288 SWAP5 SWAP4 SWAP3 SWAP2 SWAP1 PUSH2 0x28EF JUMP JUMPDEST PUSH1 0x40 MLOAD DUP1 SWAP2 SUB SWAP1 RETURN JUMPDEST CALLVALUE DUP1 ISZERO PUSH2 0x29C JUMPI PUSH0 DUP1 REVERT JUMPDEST POP PUSH2 0x2A5 PUSH2 0xC5C JUMP JUMPDEST STOP JUMPDEST CALLVALUE DUP1 ISZERO PUSH2 0x2B2 JUMPI PUSH0 DUP1 REVERT JUMPDEST POP PUSH2 0x2BB PUSH2 0xC6F JUMP JUMPDEST STOP JUMPDEST CALLVALUE DUP1 ISZERO PUSH2 0x2C8 JUMPI PUSH0 DUP1 REVERT JUMPDEST POP PUSH2 0x2E3 PUSH1 0x4 DUP1 CALLDATASIZE SUB DUP2 ADD SWAP1 PUSH2 0x2DE SWAP2 SWAP1 PUSH2 0x2932 JUMP JUMPDEST PUSH2 0xC71 JUMP JUMPDEST STOP JUMPDEST CALLVALUE DUP1 ISZERO PUSH2 0x2F0 JUMPI PUSH0 DUP1 REVERT JUMPDEST POP PUSH2 0x2F9 PUSH2 0xE39 JUMP JUMPDEST PUSH1 0x40 MLOAD PUSH2 0x306 SWAP2 SWAP1 PUSH2 0x2677 JUMP JUMPDEST PUSH1 0x40 MLOAD DUP1 SWAP2 SUB SWAP1 RETURN JUMPDEST PUSH2 0x317 PUSH2 0x535 JUMP JUMPDEST STOP JUMPDEST CALLVALUE DUP1 ISZERO PUSH2 0x324 JUMPI PUSH0 DUP1 REVERT JUMPDEST POP PUSH2 0x33F PUSH1 0x4 DUP1 CALLDATASIZE SUB DUP2 ADD SWAP1 PUSH2 0x33A SWAP2 SWAP1 PUSH2 0x235E JUMP JUMPDEST PUSH2 0xE60 JUMP JUMPDEST PUSH1 0x40 MLOAD PUSH2 0x34C SWAP2 SWAP1 PUSH2 0x28C0 JUMP JUMPDEST PUSH1 0x40 MLOAD DUP1 SWAP2 SUB SWAP1 RETURN JUMPDEST CALLVALUE DUP1 ISZERO PUSH2 0x360 JUMPI PUSH0 DUP1 REVERT JUMPDEST POP PUSH2 0x37B PUSH1 0x4 DUP1 CALLDATASIZE SUB DUP2 ADD SWAP1 PUSH2 0x376 SWAP2 SWAP1 PUSH2 0x235E JUMP JUMPDEST PUSH2 0xEFB JUMP JUMPDEST PUSH1 0x40 MLOAD PUSH2 0x390 SWAP10 SWAP9 SWAP8 SWAP7 SWAP6 SWAP5 SWAP4 SWAP3 SWAP2 SWAP1 PUSH2 0x298C JUMP JUMPDEST PUSH1 0x40 MLOAD DUP1 SWAP2 SUB SWAP1 RETURN JUMPDEST CALLVALUE DUP1 ISZERO PUSH2 0x3A4 JUMPI PUSH0 DUP1 REVERT JUMPDEST POP PUSH2 0x3BF PUSH1 0x4 DUP1 CALLDATASIZE SUB DUP2 ADD SWAP1 PUSH2 0x3BA SWAP2 SWAP1 PUSH2 0x235E JUMP JUMPDEST PUSH2 0x11A7 JUMP JUMPDEST PUSH1 0x40 MLOAD PUSH2 0x3CC SWAP2 SWAP1 PUSH2 0x2A33 JUMP JUMPDEST PUSH1 0x40 MLOAD DUP1 SWAP2 SUB SWAP1 RETURN JUMPDEST CALLVALUE DUP1 ISZERO PUSH2 0x3E0 JUMPI PUSH0 DUP1 REVERT JUMPDEST POP PUSH2 0x3FB PUSH1 0x4 DUP1 CALLDATASIZE SUB DUP2 ADD SWAP1 PUSH2 0x3F6 SWAP2 SWAP1 PUSH2 0x2A4C JUMP JUMPDEST PUSH2 0x1463 JUMP JUMPDEST STOP JUMPDEST CALLVALUE DUP1 ISZERO PUSH2 0x408 JUMPI PUSH0 DUP1 REVERT JUMPDEST POP PUSH2 0x423 PUSH1 0x4 DUP1 CALLDATASIZE SUB DUP2 ADD SWAP1 PUSH2 0x41E SWAP2 SWAP1 PUSH2 0x235E JUMP JUMPDEST PUSH2 0x1536 JUMP JUMPDEST PUSH1 0x40 MLOAD PUSH2 0x430 SWAP2 SWAP1 PUSH2 0x2A33 JUMP JUMPDEST PUSH1 0x40 MLOAD DUP1 SWAP2 SUB SWAP1 RETURN JUMPDEST CALLVALUE DUP1 ISZERO PUSH2 0x444 JUMPI PUSH0 DUP1 REVERT JUMPDEST POP PUSH2 0x45F PUSH1 0x4 DUP1 CALLDATASIZE SUB DUP2 ADD SWAP1 PUSH2 0x45A SWAP2 SWAP1 PUSH2 0x2B33 JUMP JUMPDEST PUSH2 0x1852 JUMP JUMPDEST PUSH1 0x40 MLOAD PUSH2 0x46C SWAP2 SWAP1 PUSH2 0x2A33 JUMP JUMPDEST PUSH1 0x40 MLOAD DUP1 SWAP2 SUB SWAP1 RETURN JUMPDEST PUSH2 0x48F PUSH1 0x4 DUP1 CALLDATASIZE SUB DUP2 ADD SWAP1 PUSH2 0x48A SWAP2 SWAP1 PUSH2 0x2B71 JUMP JUMPDEST PUSH2 0x1A54 JUMP JUMPDEST STOP JUMPDEST CALLVALUE DUP1 ISZERO PUSH2 0x49C JUMPI PUSH0 DUP1 REVERT JUMPDEST POP PUSH2 0x4B7 PUSH1 0x4 DUP1 CALLDATASIZE SUB DUP2 ADD SWAP1 PUSH2 0x4B2 SWAP2 SWAP1 PUSH2 0x2BAF JUMP JUMPDEST PUSH2 0x1A58 JUMP JUMPDEST PUSH1 0x40 MLOAD PUSH2 0x4C8 SWAP6 SWAP5 SWAP4 SWAP3 SWAP2 SWAP1 PUSH2 0x2BDA JUMP JUMPDEST PUSH1 0x40 MLOAD DUP1 SWAP2 SUB SWAP1 RETURN JUMPDEST CALLVALUE DUP1 ISZERO PUSH2 0x4DC JUMPI PUSH0 DUP1 REVERT JUMPDEST POP PUSH2 0x4F7 PUSH1 0x4 DUP1 CALLDATASIZE SUB DUP2 ADD SWAP1 PUSH2 0x4F2 SWAP2 SWAP1 PUSH2 0x235E JUMP JUMPDEST PUSH2 0x1CA2 JUMP JUMPDEST PUSH1 0x40 MLOAD PUSH2 0x504 SWAP2 SWAP1 PUSH2 0x2A33 JUMP JUMPDEST PUSH1 0x40 MLOAD DUP1 SWAP2 SUB SWAP1 RETURN JUMPDEST CALLVALUE DUP1 ISZERO PUSH2 0x518 JUMPI PUSH0 DUP1 REVERT JUMPDEST POP PUSH2 0x533 PUSH1 0x4 DUP1 CALLDATASIZE SUB DUP2 ADD SWAP1 PUSH2 0x52E SWAP2 SWAP1 PUSH2 0x2BAF JUMP JUMPDEST PUSH2 0x1F26 JUMP JUMPDEST STOP JUMPDEST JUMP JUMPDEST POP JUMP JUMPDEST PUSH0 DUP1 PUSH1 0x40 MLOAD DUP1 PUSH2 0x120 ADD PUSH1 0x40 MSTORE DUP1 DUP12 PUSH20 0xFFFFFFFFFFFFFFFFFFFFFFFFFFFFFFFFFFFFFFFF AND DUP2 MSTORE PUSH1 0x20 ADD DUP11 PUSH20 0xFFFFFFFFFFFFFFFFFFFFFFFFFFFFFFFFFFFFFFFF AND DUP2 MSTORE PUSH1 0x20 ADD DUP10 DUP2 MSTORE PUSH1 0x20 ADD DUP9 DUP2 MSTORE PUSH1 0x20 ADD DUP8 DUP2 MSTORE PUSH1 0x20 ADD DUP7 DUP2 MSTORE PUSH1 0x20 ADD DUP6 DUP2 MSTORE PUSH1 0x20 ADD DUP5 DUP2 MSTORE PUSH1 0x20 ADD PUSH0 PUSH1 0x4 DUP2 GT ISZERO PUSH2 0x5B7 JUMPI PUSH2 0x5B6 PUSH2 0x270E JUMP JUMPDEST JUMPDEST DUP2 MSTORE POP SWAP1 POP PUSH1 0x2 DUP2 SWAP1 DUP1 PUSH1 0x1 DUP2 SLOAD ADD DUP1 DUP3 SSTORE DUP1 SWAP2 POP POP PUSH1 0x1 SWAP1 SUB SWAP1 PUSH0 MSTORE PUSH1 0x20 PUSH0 KECCAK256 SWAP1 PUSH1 0x9 MUL ADD PUSH0 SWAP1 SWAP2 SWAP1 SWAP2 SWAP1 SWAP2 POP PUSH0 DUP3 ADD MLOAD DUP2 PUSH0 ADD PUSH0 PUSH2 0x100 EXP DUP2 SLOAD DUP2 PUSH20 0xFFFFFFFFFFFFFFFFFFFFFFFFFFFFFFFFFFFFFFFF MUL NOT AND SWAP1 DUP4 PUSH20 0xFFFFFFFFFFFFFFFFFFFFFFFFFFFFFFFFFFFFFFFF AND MUL OR SWAP1 SSTORE POP PUSH1 0x20 DUP3 ADD MLOAD DUP2 PUSH1 0x1 ADD PUSH0 PUSH2 0x100 EXP DUP2 SLOAD DUP2 PUSH20 0xFFFFFFFFFFFFFFFFFFFFFFFFFFFFFFFFFFFFFFFF MUL NOT AND SWAP1 DUP4 PUSH20 0xFFFFFFFFFFFFFFFFFFFFFFFFFFFFFFFFFFFFFFFF AND MUL OR SWAP1 SSTORE POP PUSH1 0x40 DUP3 ADD MLOAD DUP2 PUSH1 0x2 ADD SWAP1 DUP2 PUSH2 0x684 SWAP2 SWAP1 PUSH2 0x2E41 JUMP JUMPDEST POP PUSH1 0x60 DUP3 ADD MLOAD DUP2 PUSH1 0x3 ADD SWAP1 DUP2 PUSH2 0x69A SWAP2 SWAP1 PUSH2 0x2E41 JUMP JUMPDEST POP PUSH1 0x80 DUP3 ADD MLOAD DUP2 PUSH1 0x4 ADD SSTORE PUSH1 0xA0 DUP3 ADD MLOAD DUP2 PUSH1 0x5 ADD SSTORE PUSH1 0xC0 DUP3 ADD MLOAD DUP2 PUSH1 0x6 ADD SWAP1 DUP2 PUSH2 0x6C4 SWAP2 SWAP1 PUSH2 0x2E41 JUMP JUMPDEST POP PUSH1 0xE0 DUP3 ADD MLOAD DUP2 PUSH1 0x7 ADD SWAP1 DUP2 PUSH2 0x6DA SWAP2 SWAP1 PUSH2 0x2E41 JUMP JUMPDEST POP PUSH2 0x100 DUP3 ADD MLOAD DUP2 PUSH1 0x8 ADD PUSH0 PUSH2 0x100 EXP DUP2 SLOAD DUP2 PUSH1 0xFF MUL NOT AND SWAP1 DUP4 PUSH1 0x4 DUP2 GT ISZERO PUSH2 0x706 JUMPI PUSH2 0x705 PUSH2 0x270E JUMP JUMPDEST JUMPDEST MUL OR SWAP1 SSTORE POP POP POP PUSH0 PUSH1 0x1 PUSH1 0x2 DUP1 SLOAD SWAP1 POP PUSH2 0x720 SWAP2 SWAP1 PUSH2 0x2F3D JUMP JUMPDEST SWAP1 POP PUSH2 0x72F DUP3 PUSH0 ADD MLOAD DUP3 PUSH2 0x1FAA JUMP JUMPDEST POP PUSH2 0x73E DUP3 PUSH1 0x20 ADD MLOAD DUP3 PUSH2 0x2078 JUMP JUMPDEST POP DUP2 PUSH0 ADD MLOAD PUSH20 0xFFFFFFFFFFFFFFFFFFFFFFFFFFFFFFFFFFFFFFFF AND PUSH32 0xF0E1A812BB9CC111C5D37BB479884E858FBEA6E05A54B4032EC67801392B90F8 DUP4 PUSH1 0x20 ADD MLOAD DUP5 PUSH1 0x60 ADD MLOAD DUP6 PUSH1 0x80 ADD MLOAD PUSH1 0x40 MLOAD PUSH2 0x798 SWAP4 SWAP3 SWAP2 SWAP1 PUSH2 0x2F70 JUMP JUMPDEST PUSH1 0x40 MLOAD DUP1 SWAP2 SUB SWAP1 LOG2 DUP1 SWAP3 POP POP POP SWAP9 SWAP8 POP POP POP POP POP POP POP POP JUMP JUMPDEST PUSH1 0xA PUSH1 0x20 MSTORE DUP1 PUSH0 MSTORE PUSH1 0x40 PUSH0 KECCAK256 PUSH0 SWAP2 POP SLOAD SWAP1 PUSH2 0x100 EXP SWAP1 DIV PUSH20 0xFFFFFFFFFFFFFFFFFFFFFFFFFFFFFFFFFFFFFFFF AND DUP2 JUMP JUMPDEST PUSH2 0x7E9 PUSH2 0x2295 JUMP JUMPDEST PUSH1 0x6 PUSH0 DUP4 DUP2 MSTORE PUSH1 0x20 ADD SWAP1 DUP2 MSTORE PUSH1 0x20 ADD PUSH0 KECCAK256 PUSH1 0x40 MLOAD DUP1 PUSH2 0x120 ADD PUSH1 0x40 MSTORE SWAP1 DUP2 PUSH0 DUP3 ADD PUSH0 SWAP1 SLOAD SWAP1 PUSH2 0x100 EXP SWAP1 DIV PUSH20 0xFFFFFFFFFFFFFFFFFFFFFFFFFFFFFFFFFFFFFFFF AND PUSH20 0xFFFFFFFFFFFFFFFFFFFFFFFFFFFFFFFFFFFFFFFF AND PUSH20 0xFFFFFFFFFFFFFFFFFFFFFFFFFFFFFFFFFFFFFFFF AND DUP2 MSTORE PUSH1 0x20 ADD PUSH1 0x1 DUP3 ADD PUSH0 SWAP1 SLOAD SWAP1 PUSH2 0x100 EXP SWAP1 DIV PUSH20 0xFFFFFFFFFFFFFFFFFFFFFFFFFFFFFFFFFFFFFFFF AND PUSH20 0xFFFFFFFFFFFFFFFFFFFFFFFFFFFFFFFFFFFFFFFF AND PUSH20 0xFFFFFFFFFFFFFFFFFFFFFFFFFFFFFFFFFFFFFFFF AND DUP2 MSTORE PUSH1 0x20 ADD PUSH1 0x2 DUP3 ADD DUP1 SLOAD PUSH2 0x8BF SWAP1 PUSH2 0x2C74 JUMP JUMPDEST DUP1 PUSH1 0x1F ADD PUSH1 0x20 DUP1 SWAP2 DIV MUL PUSH1 0x20 ADD PUSH1 0x40 MLOAD SWAP1 DUP2 ADD PUSH1 0x40 MSTORE DUP1 SWAP3 SWAP2 SWAP1 DUP2 DUP2 MSTORE PUSH1 0x20 ADD DUP3 DUP1 SLOAD PUSH2 0x8EB SWAP1 PUSH2 0x2C74 JUMP JUMPDEST DUP1 ISZERO PUSH2 0x936 JUMPI DUP1 PUSH1 0x1F LT PUSH2 0x90D JUMPI PUSH2 0x100 DUP1 DUP4 SLOAD DIV MUL DUP4 MSTORE SWAP2 PUSH1 0x20 ADD SWAP2 PUSH2 0x936 JUMP JUMPDEST DUP3 ADD SWAP2 SWAP1 PUSH0 MSTORE PUSH1 0x20 PUSH0 KECCAK256 SWAP1 JUMPDEST DUP2 SLOAD DUP2 MSTORE SWAP1 PUSH1 0x1 ADD SWAP1 PUSH1 0x20 ADD DUP1 DUP4 GT PUSH2 0x919 JUMPI DUP3 SWAP1 SUB PUSH1 0x1F AND DUP3 ADD SWAP2 JUMPDEST POP POP POP POP POP DUP2 MSTORE PUSH1 0x20 ADD PUSH1 0x3 DUP3 ADD DUP1 SLOAD PUSH2 0x94F SWAP1 PUSH2 0x2C74 JUMP JUMPDEST DUP1 PUSH1 0x1F ADD PUSH1 0x20 DUP1 SWAP2 DIV MUL PUSH1 0x20 ADD PUSH1 0x40 MLOAD SWAP1 DUP2 ADD PUSH1 0x40 MSTORE DUP1 SWAP3 SWAP2 SWAP1 DUP2 DUP2 MSTORE PUSH1 0x20 ADD DUP3 DUP1 SLOAD PUSH2 0x97B SWAP1 PUSH2 0x2C74 JUMP JUMPDEST DUP1 ISZERO PUSH2 0x9C6 JUMPI DUP1 PUSH1 0x1F LT PUSH2 0x99D JUMPI PUSH2 0x100 DUP1 DUP4 SLOAD DIV MUL DUP4 MSTORE SWAP2 PUSH1 0x20 ADD SWAP2 PUSH2 0x9C6 JUMP JUMPDEST DUP3 ADD SWAP2 SWAP1 PUSH0 MSTORE PUSH1 0x20 PUSH0 KECCAK256 SWAP1 JUMPDEST DUP2 SLOAD DUP2 MSTORE SWAP1 PUSH1 0x1 ADD SWAP1 PUSH1 0x20 ADD DUP1 DUP4 GT PUSH2 0x9A9 JUMPI DUP3 SWAP1 SUB PUSH1 0x1F AND DUP3 ADD SWAP2 JUMPDEST POP POP POP POP POP DUP2 MSTORE PUSH1 0x20 ADD PUSH1 0x4 DUP3 ADD SLOAD DUP2 MSTORE PUSH1 0x20 ADD PUSH1 0x5 DUP3 ADD SLOAD DUP2 MSTORE PUSH1 0x20 ADD PUSH1 0x6 DUP3 ADD DUP1 SLOAD PUSH2 0x9F3 SWAP1 PUSH2 0x2C74 JUMP JUMPDEST DUP1 PUSH1 0x1F ADD PUSH1 0x20 DUP1 SWAP2 DIV MUL PUSH1 0x20 ADD PUSH1 0x40 MLOAD SWAP1 DUP2 ADD PUSH1 0x40 MSTORE DUP1 SWAP3 SWAP2 SWAP1 DUP2 DUP2 MSTORE PUSH1 0x20 ADD DUP3 DUP1 SLOAD PUSH2 0xA1F SWAP1 PUSH2 0x2C74 JUMP JUMPDEST DUP1 ISZERO PUSH2 0xA6A JUMPI DUP1 PUSH1 0x1F LT PUSH2 0xA41 JUMPI PUSH2 0x100 DUP1 DUP4 SLOAD DIV MUL DUP4 MSTORE SWAP2 PUSH1 0x20 ADD SWAP2 PUSH2 0xA6A JUMP JUMPDEST DUP3 ADD SWAP2 SWAP1 PUSH0 MSTORE PUSH1 0x20 PUSH0 KECCAK256 SWAP1 JUMPDEST DUP2 SLOAD DUP2 MSTORE SWAP1 PUSH1 0x1 ADD SWAP1 PUSH1 0x20 ADD DUP1 DUP4 GT PUSH2 0xA4D JUMPI DUP3 SWAP1 SUB PUSH1 0x1F AND DUP3 ADD SWAP2 JUMPDEST POP POP POP POP POP DUP2 MSTORE PUSH1 0x20 ADD PUSH1 0x7 DUP3 ADD DUP1 SLOAD PUSH2 0xA83 SWAP1 PUSH2 0x2C74 JUMP JUMPDEST DUP1 PUSH1 0x1F ADD PUSH1 0x20 DUP1 SWAP2 DIV MUL PUSH1 0x20 ADD PUSH1 0x40 MLOAD SWAP1 DUP2 ADD PUSH1 0x40 MSTORE DUP1 SWAP3 SWAP2 SWAP1 DUP2 DUP2 MSTORE PUSH1 0x20 ADD DUP3 DUP1 SLOAD PUSH2 0xAAF SWAP1 PUSH2 0x2C74 JUMP JUMPDEST DUP1 ISZERO PUSH2 0xAFA JUMPI DUP1 PUSH1 0x1F LT PUSH2 0xAD1 JUMPI PUSH2 0x100 DUP1 DUP4 SLOAD DIV MUL DUP4 MSTORE SWAP2 PUSH1 0x20 ADD SWAP2 PUSH2 0xAFA JUMP JUMPDEST DUP3 ADD SWAP2 SWAP1 PUSH0 MSTORE PUSH1 0x20 PUSH0 KECCAK256 SWAP1 JUMPDEST DUP2 SLOAD DUP2 MSTORE SWAP1 PUSH1 0x1 ADD SWAP1 PUSH1 0x20 ADD DUP1 DUP4 GT PUSH2 0xADD JUMPI DUP3 SWAP1 SUB PUSH1 0x1F AND DUP3 ADD SWAP2 JUMPDEST POP POP POP POP POP DUP2 MSTORE PUSH1 0x20 ADD PUSH1 0x8 DUP3 ADD PUSH0 SWAP1 SLOAD SWAP1 PUSH2 0x100 EXP SWAP1 DIV PUSH1 0xFF AND PUSH1 0x4 DUP2 GT ISZERO PUSH2 0xB27 JUMPI PUSH2 0xB26 PUSH2 0x270E JUMP JUMPDEST JUMPDEST PUSH1 0x4 DUP2 GT ISZERO PUSH2 0xB39 JUMPI PUSH2 0xB38 PUSH2 0x270E JUMP JUMPDEST JUMPDEST DUP2 MSTORE POP POP SWAP1 POP SWAP2 SWAP1 POP JUMP JUMPDEST PUSH1 0x60 PUSH1 0x7 PUSH0 DUP4 DUP2 MSTORE PUSH1 0x20 ADD SWAP1 DUP2 MSTORE PUSH1 0x20 ADD PUSH0 KECCAK256 DUP1 SLOAD PUSH2 0xB62 SWAP1 PUSH2 0x2C74 JUMP JUMPDEST DUP1 PUSH1 0x1F ADD PUSH1 0x20 DUP1 SWAP2 DIV MUL PUSH1 0x20 ADD PUSH1 0x40 MLOAD SWAP1 DUP2 ADD PUSH1 0x40 MSTORE DUP1 SWAP3 SWAP2 SWAP1 DUP2 DUP2 MSTORE PUSH1 0x20 ADD DUP3 DUP1 SLOAD PUSH2 0xB8E SWAP1 PUSH2 0x2C74 JUMP JUMPDEST DUP1 ISZERO PUSH2 0xBD9 JUMPI DUP1 PUSH1 0x1F LT PUSH2 0xBB0 JUMPI PUSH2 0x100 DUP1 DUP4 SLOAD DIV MUL DUP4 MSTORE SWAP2 PUSH1 0x20 ADD SWAP2 PUSH2 0xBD9 JUMP JUMPDEST DUP3 ADD SWAP2 SWAP1 PUSH0 MSTORE PUSH1 0x20 PUSH0 KECCAK256 SWAP1 JUMPDEST DUP2 SLOAD DUP2 MSTORE SWAP1 PUSH1 0x1 ADD SWAP1 PUSH1 0x20 ADD DUP1 DUP4 GT PUSH2 0xBBC JUMPI DUP3 SWAP1 SUB PUSH1 0x1F AND DUP3 ADD SWAP2 JUMPDEST POP POP POP POP POP SWAP1 POP SWAP2 SWAP1 POP JUMP JUMPDEST PUSH1 0x5 PUSH1 0x20 MSTORE DUP1 PUSH0 MSTORE PUSH1 0x40 PUSH0 KECCAK256 PUSH0 SWAP2 POP SWAP1 POP DUP1 PUSH0 ADD SLOAD SWAP1 DUP1 PUSH1 0x1 ADD PUSH0 SWAP1 SLOAD SWAP1 PUSH2 0x100 EXP SWAP1 DIV PUSH20 0xFFFFFFFFFFFFFFFFFFFFFFFFFFFFFFFFFFFFFFFF AND SWAP1 DUP1 PUSH1 0x2 ADD PUSH0 SWAP1 SLOAD SWAP1 PUSH2 0x100 EXP SWAP1 DIV PUSH20 0xFFFFFFFFFFFFFFFFFFFFFFFFFFFFFFFFFFFFFFFF AND SWAP1 DUP1 PUSH1 0x2 ADD PUSH1 0x14 SWAP1 SLOAD SWAP1 PUSH2 0x100 EXP SWAP1 DIV PUSH1 0xFF AND SWAP1 POP DUP5 JUMP JUMPDEST PUSH2 0xC64 PUSH2 0x2146 JUMP JUMPDEST PUSH2 0xC6D PUSH0 PUSH2 0x21CD JUMP JUMPDEST JUMP JUMPDEST JUMP JUMPDEST DUP1 PUSH1 0xA PUSH0 DUP3 DUP2 MSTORE PUSH1 0x20 ADD SWAP1 DUP2 MSTORE PUSH1 0x20 ADD PUSH0 KECCAK256 PUSH0 SWAP1 SLOAD SWAP1 PUSH2 0x100 EXP SWAP1 DIV PUSH20 0xFFFFFFFFFFFFFFFFFFFFFFFFFFFFFFFFFFFFFFFF AND PUSH20 0xFFFFFFFFFFFFFFFFFFFFFFFFFFFFFFFFFFFFFFFF AND CALLER PUSH20 0xFFFFFFFFFFFFFFFFFFFFFFFFFFFFFFFFFFFFFFFF AND EQ PUSH2 0xCD9 JUMPI PUSH0 DUP1 REVERT JUMPDEST PUSH1 0x1 PUSH1 0x4 DUP2 GT ISZERO PUSH2 0xCED JUMPI PUSH2 0xCEC PUSH2 0x270E JUMP JUMPDEST JUMPDEST PUSH1 0x2 DUP4 DUP2 SLOAD DUP2 LT PUSH2 0xD01 JUMPI PUSH2 0xD00 PUSH2 0x2FAC JUMP JUMPDEST JUMPDEST SWAP1 PUSH0 MSTORE PUSH1 0x20 PUSH0 KECCAK256 SWAP1 PUSH1 0x9 MUL ADD PUSH1 0x8 ADD PUSH0 SWAP1 SLOAD SWAP1 PUSH2 0x100 EXP SWAP1 DIV PUSH1 0xFF AND PUSH1 0x4 DUP2 GT ISZERO PUSH2 0xD2F JUMPI PUSH2 0xD2E PUSH2 0x270E JUMP JUMPDEST JUMPDEST EQ PUSH2 0xD6F JUMPI PUSH1 0x40 MLOAD PUSH32 0x8C379A000000000000000000000000000000000000000000000000000000000 DUP2 MSTORE PUSH1 0x4 ADD PUSH2 0xD66 SWAP1 PUSH2 0x3049 JUMP JUMPDEST PUSH1 0x40 MLOAD DUP1 SWAP2 SUB SWAP1 REVERT JUMPDEST DUP3 PUSH1 0x2 DUP4 DUP2 SLOAD DUP2 LT PUSH2 0xD84 JUMPI PUSH2 0xD83 PUSH2 0x2FAC JUMP JUMPDEST JUMPDEST SWAP1 PUSH0 MSTORE PUSH1 0x20 PUSH0 KECCAK256 SWAP1 PUSH1 0x9 MUL ADD PUSH1 0x2 ADD SWAP1 DUP2 PUSH2 0xD9F SWAP2 SWAP1 PUSH2 0x2E41 JUMP JUMPDEST POP CALLER PUSH20 0xFFFFFFFFFFFFFFFFFFFFFFFFFFFFFFFFFFFFFFFF AND PUSH32 0xE76CF74E69EC52C98A577258FECC28C0CA042124666247B7116D37CAF0C49283 PUSH1 0x2 DUP5 DUP2 SLOAD DUP2 LT PUSH2 0xDEC JUMPI PUSH2 0xDEB PUSH2 0x2FAC JUMP JUMPDEST JUMPDEST SWAP1 PUSH0 MSTORE PUSH1 0x20 PUSH0 KECCAK256 SWAP1 PUSH1 0x9 MUL ADD PUSH1 0x2 ADD PUSH1 0x2 DUP6 DUP2 SLOAD DUP2 LT PUSH2 0xE0F JUMPI PUSH2 0xE0E PUSH2 0x2FAC JUMP JUMPDEST JUMPDEST SWAP1 PUSH0 MSTORE PUSH1 0x20 PUSH0 KECCAK256 SWAP1 PUSH1 0x9 MUL ADD PUSH1 0x7 ADD PUSH1 0x40 MLOAD PUSH2 0xE2C SWAP3 SWAP2 SWAP1 PUSH2 0x30E8 JUMP JUMPDEST PUSH1 0x40 MLOAD DUP1 SWAP2 SUB SWAP1 LOG2 POP POP POP JUMP JUMPDEST PUSH0 DUP1 PUSH0 SWAP1 SLOAD SWAP1 PUSH2 0x100 EXP SWAP1 DIV PUSH20 0xFFFFFFFFFFFFFFFFFFFFFFFFFFFFFFFFFFFFFFFF AND SWAP1 POP SWAP1 JUMP JUMPDEST PUSH1 0x7 PUSH1 0x20 MSTORE DUP1 PUSH0 MSTORE PUSH1 0x40 PUSH0 KECCAK256 PUSH0 SWAP2 POP SWAP1 POP DUP1 SLOAD PUSH2 0xE7C SWAP1 PUSH2 0x2C74 JUMP JUMPDEST DUP1 PUSH1 0x1F ADD PUSH1 0x20 DUP1 SWAP2 DIV MUL PUSH1 0x20 ADD PUSH1 0x40 MLOAD SWAP1 DUP2 ADD PUSH1 0x40 MSTORE DUP1 SWAP3 SWAP2 SWAP1 DUP2 DUP2 MSTORE PUSH1 0x20 ADD DUP3 DUP1 SLOAD PUSH2 0xEA8 SWAP1 PUSH2 0x2C74 JUMP JUMPDEST DUP1 ISZERO PUSH2 0xEF3 JUMPI DUP1 PUSH1 0x1F LT PUSH2 0xECA JUMPI PUSH2 0x100 DUP1 DUP4 SLOAD DIV MUL DUP4 MSTORE SWAP2 PUSH1 0x20 ADD SWAP2 PUSH2 0xEF3 JUMP JUMPDEST DUP3 ADD SWAP2 SWAP1 PUSH0 MSTORE PUSH1 0x20 PUSH0 KECCAK256 SWAP1 JUMPDEST DUP2 SLOAD DUP2 MSTORE SWAP1 PUSH1 0x1 ADD SWAP1 PUSH1 0x20 ADD DUP1 DUP4 GT PUSH2 0xED6 JUMPI DUP3 SWAP1 SUB PUSH1 0x1F AND DUP3 ADD SWAP2 JUMPDEST POP POP POP POP POP DUP2 JUMP JUMPDEST PUSH1 0x6 PUSH1 0x20 MSTORE DUP1 PUSH0 MSTORE PUSH1 0x40 PUSH0 KECCAK256 PUSH0 SWAP2 POP SWAP1 POP DUP1 PUSH0 ADD PUSH0 SWAP1 SLOAD SWAP1 PUSH2 0x100 EXP SWAP1 DIV PUSH20 0xFFFFFFFFFFFFFFFFFFFFFFFFFFFFFFFFFFFFFFFF AND SWAP1 DUP1 PUSH1 0x1 ADD PUSH0 SWAP1 SLOAD SWAP1 PUSH2 0x100 EXP SWAP1 DIV PUSH20 0xFFFFFFFFFFFFFFFFFFFFFFFFFFFFFFFFFFFFFFFF AND SWAP1 DUP1 PUSH1 0x2 ADD DUP1 SLOAD PUSH2 0xF64 SWAP1 PUSH2 0x2C74 JUMP JUMPDEST DUP1 PUSH1 0x1F ADD PUSH1 0x20 DUP1 SWAP2 DIV MUL PUSH1 0x20 ADD PUSH1 0x40 MLOAD SWAP1 DUP2 ADD PUSH1 0x40 MSTORE DUP1 SWAP3 SWAP2 SWAP1 DUP2 DUP2 MSTORE PUSH1 0x20 ADD DUP3 DUP1 SLOAD PUSH2 0xF90 SWAP1 PUSH2 0x2C74 JUMP JUMPDEST DUP1 ISZERO PUSH2 0xFDB JUMPI DUP1 PUSH1 0x1F LT PUSH2 0xFB2 JUMPI PUSH2 0x100 DUP1 DUP4 SLOAD DIV MUL DUP4 MSTORE SWAP2 PUSH1 0x20 ADD SWAP2 PUSH2 0xFDB JUMP JUMPDEST DUP3 ADD SWAP2 SWAP1 PUSH0 MSTORE PUSH1 0x20 PUSH0 KECCAK256 SWAP1 JUMPDEST DUP2 SLOAD DUP2 MSTORE SWAP1 PUSH1 0x1 ADD SWAP1 PUSH1 0x20 ADD DUP1 DUP4 GT PUSH2 0xFBE JUMPI DUP3 SWAP1 SUB PUSH1 0x1F AND DUP3 ADD SWAP2 JUMPDEST POP POP POP POP POP SWAP1 DUP1 PUSH1 0x3 ADD DUP1 SLOAD PUSH2 0xFF0 SWAP1 PUSH2 0x2C74 JUMP JUMPDEST DUP1 PUSH1 0x1F ADD PUSH1 0x20 DUP1 SWAP2 DIV MUL PUSH1 0x20 ADD PUSH1 0x40 MLOAD SWAP1 DUP2 ADD PUSH1 0x40 MSTORE DUP1 SWAP3 SWAP2 SWAP1 DUP2 DUP2 MSTORE PUSH1 0x20 ADD DUP3 DUP1 SLOAD PUSH2 0x101C SWAP1 PUSH2 0x2C74 JUMP JUMPDEST DUP1 ISZERO PUSH2 0x1067 JUMPI DUP1 PUSH1 0x1F LT PUSH2 0x103E JUMPI PUSH2 0x100 DUP1 DUP4 SLOAD DIV MUL DUP4 MSTORE SWAP2 PUSH1 0x20 ADD SWAP2 PUSH2 0x1067 JUMP JUMPDEST DUP3 ADD SWAP2 SWAP1 PUSH0 MSTORE PUSH1 0x20 PUSH0 KECCAK256 SWAP1 JUMPDEST DUP2 SLOAD DUP2 MSTORE SWAP1 PUSH1 0x1 ADD SWAP1 PUSH1 0x20 ADD DUP1 DUP4 GT PUSH2 0x104A JUMPI DUP3 SWAP1 SUB PUSH1 0x1F AND DUP3 ADD SWAP2 JUMPDEST POP POP POP POP POP SWAP1 DUP1 PUSH1 0x4 ADD SLOAD SWAP1 DUP1 PUSH1 0x5 ADD SLOAD SWAP1 DUP1 PUSH1 0x6 ADD DUP1 SLOAD PUSH2 0x1088 SWAP1 PUSH2 0x2C74 JUMP JUMPDEST DUP1 PUSH1 0x1F ADD PUSH1 0x20 DUP1 SWAP2 DIV MUL PUSH1 0x20 ADD PUSH1 0x40 MLOAD SWAP1 DUP2 ADD PUSH1 0x40 MSTORE DUP1 SWAP3 SWAP2 SWAP1 DUP2 DUP2 MSTORE PUSH1 0x20 ADD DUP3 DUP1 SLOAD PUSH2 0x10B4 SWAP1 PUSH2 0x2C74 JUMP JUMPDEST DUP1 ISZERO PUSH2 0x10FF JUMPI DUP1 PUSH1 0x1F LT PUSH2 0x10D6 JUMPI PUSH2 0x100 DUP1 DUP4 SLOAD DIV MUL DUP4 MSTORE SWAP2 PUSH1 0x20 ADD SWAP2 PUSH2 0x10FF JUMP JUMPDEST DUP3 ADD SWAP2 SWAP1 PUSH0 MSTORE PUSH1 0x20 PUSH0 KECCAK256 SWAP1 JUMPDEST DUP2 SLOAD DUP2 MSTORE SWAP1 PUSH1 0x1 ADD SWAP1 PUSH1 0x20 ADD DUP1 DUP4 GT PUSH2 0x10E2 JUMPI DUP3 SWAP1 SUB PUSH1 0x1F AND DUP3 ADD SWAP2 JUMPDEST POP POP POP POP POP SWAP1 DUP1 PUSH1 0x7 ADD DUP1 SLOAD PUSH2 0x1114 SWAP1 PUSH2 0x2C74 JUMP JUMPDEST DUP1 PUSH1 0x1F ADD PUSH1 0x20 DUP1 SWAP2 DIV MUL PUSH1 0x20 ADD PUSH1 0x40 MLOAD SWAP1 DUP2 ADD PUSH1 0x40 MSTORE DUP1 SWAP3 SWAP2 SWAP1 DUP2 DUP2 MSTORE PUSH1 0x20 ADD DUP3 DUP1 SLOAD PUSH2 0x1140 SWAP1 PUSH2 0x2C74 JUMP JUMPDEST DUP1 ISZERO PUSH2 0x118B JUMPI DUP1 PUSH1 0x1F LT PUSH2 0x1162 JUMPI PUSH2 0x100 DUP1 DUP4 SLOAD DIV MUL DUP4 MSTORE SWAP2 PUSH1 0x20 ADD SWAP2 PUSH2 0x118B JUMP JUMPDEST DUP3 ADD SWAP2 SWAP1 PUSH0 MSTORE PUSH1 0x20 PUSH0 KECCAK256 SWAP1 JUMPDEST DUP2 SLOAD DUP2 MSTORE SWAP1 PUSH1 0x1 ADD SWAP1 PUSH1 0x20 ADD DUP1 DUP4 GT PUSH2 0x116E JUMPI DUP3 SWAP1 SUB PUSH1 0x1F AND DUP3 ADD SWAP2 JUMPDEST POP POP POP POP POP SWAP1 DUP1 PUSH1 0x8 ADD PUSH0 SWAP1 SLOAD SWAP1 PUSH2 0x100 EXP SWAP1 DIV PUSH1 0xFF AND SWAP1 POP DUP10 JUMP JUMPDEST PUSH0 DUP2 PUSH1 0x9 PUSH0 CALLER PUSH20 0xFFFFFFFFFFFFFFFFFFFFFFFFFFFFFFFFFFFFFFFF AND PUSH20 0xFFFFFFFFFFFFFFFFFFFFFFFFFFFFFFFFFFFFFFFF AND DUP2 MSTORE PUSH1 0x20 ADD SWAP1 DUP2 MSTORE PUSH1 0x20 ADD PUSH0 KECCAK256 PUSH0 DUP3 DUP2 MSTORE PUSH1 0x20 ADD SWAP1 DUP2 MSTORE PUSH1 0x20 ADD PUSH0 KECCAK256 PUSH0 SWAP1 SLOAD SWAP1 PUSH2 0x100 EXP SWAP1 DIV PUSH1 0xFF AND PUSH2 0x1241 JUMPI PUSH1 0x40 MLOAD PUSH32 0x8C379A000000000000000000000000000000000000000000000000000000000 DUP2 MSTORE PUSH1 0x4 ADD PUSH2 0x1238 SWAP1 PUSH2 0x318D JUMP JUMPDEST PUSH1 0x40 MLOAD DUP1 SWAP2 SUB SWAP1 REVERT JUMPDEST PUSH1 0x1 PUSH1 0x4 DUP2 GT ISZERO PUSH2 0x1255 JUMPI PUSH2 0x1254 PUSH2 0x270E JUMP JUMPDEST JUMPDEST PUSH1 0x2 DUP5 DUP2 SLOAD DUP2 LT PUSH2 0x1269 JUMPI PUSH2 0x1268 PUSH2 0x2FAC JUMP JUMPDEST JUMPDEST SWAP1 PUSH0 MSTORE PUSH1 0x20 PUSH0 KECCAK256 SWAP1 PUSH1 0x9 MUL ADD PUSH1 0x8 ADD PUSH0 SWAP1 SLOAD SWAP1 PUSH2 0x100 EXP SWAP1 DIV PUSH1 0xFF AND PUSH1 0x4 DUP2 GT ISZERO PUSH2 0x1297 JUMPI PUSH2 0x1296 PUSH2 0x270E JUMP JUMPDEST JUMPDEST EQ PUSH2 0x12D7 JUMPI PUSH1 0x40 MLOAD PUSH32 0x8C379A000000000000000000000000000000000000000000000000000000000 DUP2 MSTORE PUSH1 0x4 ADD PUSH2 0x12CE SWAP1 PUSH2 0x321B JUMP JUMPDEST PUSH1 0x40 MLOAD DUP1 SWAP2 SUB SWAP1 REVERT JUMPDEST PUSH1 0x2 DUP4 DUP2 SLOAD DUP2 LT PUSH2 0x12EB JUMPI PUSH2 0x12EA PUSH2 0x2FAC JUMP JUMPDEST JUMPDEST SWAP1 PUSH0 MSTORE PUSH1 0x20 PUSH0 KECCAK256 SWAP1 PUSH1 0x9 MUL ADD PUSH1 0x2 ADD PUSH1 0x40 MLOAD PUSH1 0x20 ADD PUSH2 0x130A SWAP2 SWAP1 PUSH2 0x32C3 JUMP JUMPDEST PUSH1 0x40 MLOAD PUSH1 0x20 DUP2 DUP4 SUB SUB DUP2 MSTORE SWAP1 PUSH1 0x40 MSTORE DUP1 MLOAD SWAP1 PUSH1 0x20 ADD KECCAK256 PUSH1 0x2 DUP5 DUP2 SLOAD DUP2 LT PUSH2 0x1334 JUMPI PUSH2 0x1333 PUSH2 0x2FAC JUMP JUMPDEST JUMPDEST SWAP1 PUSH0 MSTORE PUSH1 0x20 PUSH0 KECCAK256 SWAP1 PUSH1 0x9 MUL ADD PUSH1 0x7 ADD PUSH1 0x40 MLOAD PUSH1 0x20 ADD PUSH2 0x1353 SWAP2 SWAP1 PUSH2 0x32C3 JUMP JUMPDEST PUSH1 0x40 MLOAD PUSH1 0x20 DUP2 DUP4 SUB SUB DUP2 MSTORE SWAP1 PUSH1 0x40 MSTORE DUP1 MLOAD SWAP1 PUSH1 0x20 ADD KECCAK256 EQ PUSH2 0x13A9 JUMPI PUSH1 0x40 MLOAD PUSH32 0x8C379A000000000000000000000000000000000000000000000000000000000 DUP2 MSTORE PUSH1 0x4 ADD PUSH2 0x13A0 SWAP1 PUSH2 0x3349 JUMP JUMPDEST PUSH1 0x40 MLOAD DUP1 SWAP2 SUB SWAP1 REVERT JUMPDEST PUSH1 0x3 PUSH1 0x2 DUP5 DUP2 SLOAD DUP2 LT PUSH2 0x13BF JUMPI PUSH2 0x13BE PUSH2 0x2FAC JUMP JUMPDEST JUMPDEST SWAP1 PUSH0 MSTORE PUSH1 0x20 PUSH0 KECCAK256 SWAP1 PUSH1 0x9 MUL ADD PUSH1 0x8 ADD PUSH0 PUSH2 0x100 EXP DUP2 SLOAD DUP2 PUSH1 0xFF MUL NOT AND SWAP1 DUP4 PUSH1 0x4 DUP2 GT ISZERO PUSH2 0x13EF JUMPI PUSH2 0x13EE PUSH2 0x270E JUMP JUMPDEST JUMPDEST MUL OR SWAP1 SSTORE POP PUSH32 0xCE557901062D2CD6275FDBE8D12EA52A477F2FC66D8C5FEC5A993820180B6CD3 DUP4 PUSH1 0x40 MLOAD PUSH2 0x1423 SWAP2 SWAP1 PUSH2 0x264F JUMP JUMPDEST PUSH1 0x40 MLOAD DUP1 SWAP2 SUB SWAP1 LOG1 PUSH1 0x2 DUP4 DUP2 SLOAD DUP2 LT PUSH2 0x143F JUMPI PUSH2 0x143E PUSH2 0x2FAC JUMP JUMPDEST JUMPDEST SWAP1 PUSH0 MSTORE PUSH1 0x20 PUSH0 KECCAK256 SWAP1 PUSH1 0x9 MUL ADD PUSH1 0x8 ADD PUSH0 SWAP1 SLOAD SWAP1 PUSH2 0x100 EXP SWAP1 DIV PUSH1 0xFF AND SWAP2 POP POP SWAP2 SWAP1 POP JUMP JUMPDEST PUSH0 PUSH1 0x40 MLOAD DUP1 PUSH1 0xA0 ADD PUSH1 0x40 MSTORE DUP1 DUP8 DUP2 MSTORE PUSH1 0x20 ADD DUP7 DUP2 MSTORE PUSH1 0x20 ADD DUP6 DUP2 MSTORE PUSH1 0x20 ADD DUP5 DUP2 MSTORE PUSH1 0x20 ADD DUP4 DUP2 MSTORE POP SWAP1 POP DUP1 PUSH1 0x4 PUSH0 CALLER PUSH20 0xFFFFFFFFFFFFFFFFFFFFFFFFFFFFFFFFFFFFFFFF AND PUSH20 0xFFFFFFFFFFFFFFFFFFFFFFFFFFFFFFFFFFFFFFFF AND DUP2 MSTORE PUSH1 0x20 ADD SWAP1 DUP2 MSTORE PUSH1 0x20 ADD PUSH0 KECCAK256 PUSH0 DUP3 ADD MLOAD DUP2 PUSH0 ADD SWAP1 DUP2 PUSH2 0x14DE SWAP2 SWAP1 PUSH2 0x2E41 JUMP JUMPDEST POP PUSH1 0x20 DUP3 ADD MLOAD DUP2 PUSH1 0x1 ADD SWAP1 DUP2 PUSH2 0x14F4 SWAP2 SWAP1 PUSH2 0x2E41 JUMP JUMPDEST POP PUSH1 0x40 DUP3 ADD MLOAD DUP2 PUSH1 0x2 ADD SSTORE PUSH1 0x60 DUP3 ADD MLOAD DUP2 PUSH1 0x3 ADD SWAP1 DUP2 PUSH2 0x1514 SWAP2 SWAP1 PUSH2 0x2E41 JUMP JUMPDEST POP PUSH1 0x80 DUP3 ADD MLOAD DUP2 PUSH1 0x4 ADD SWAP1 DUP2 PUSH2 0x152A SWAP2 SWAP1 PUSH2 0x2E41 JUMP JUMPDEST POP SWAP1 POP POP POP POP POP POP POP POP JUMP JUMPDEST PUSH0 DUP2 PUSH1 0x9 PUSH0 CALLER PUSH20 0xFFFFFFFFFFFFFFFFFFFFFFFFFFFFFFFFFFFFFFFF AND PUSH20 0xFFFFFFFFFFFFFFFFFFFFFFFFFFFFFFFFFFFFFFFF AND DUP2 MSTORE PUSH1 0x20 ADD SWAP1 DUP2 MSTORE PUSH1 0x20 ADD PUSH0 KECCAK256 PUSH0 DUP3 DUP2 MSTORE PUSH1 0x20 ADD SWAP1 DUP2 MSTORE PUSH1 0x20 ADD PUSH0 KECCAK256 PUSH0 SWAP1 SLOAD SWAP1 PUSH2 0x100 EXP SWAP1 DIV PUSH1 0xFF AND PUSH2 0x15D0 JUMPI PUSH1 0x40 MLOAD PUSH32 0x8C379A000000000000000000000000000000000000000000000000000000000 DUP2 MSTORE PUSH1 0x4 ADD PUSH2 0x15C7 SWAP1 PUSH2 0x318D JUMP JUMPDEST PUSH1 0x40 MLOAD DUP1 SWAP2 SUB SWAP1 REVERT JUMPDEST PUSH1 0x2 PUSH1 0x4 DUP2 GT ISZERO PUSH2 0x15E4 JUMPI PUSH2 0x15E3 PUSH2 0x270E JUMP JUMPDEST JUMPDEST PUSH1 0x2 DUP5 DUP2 SLOAD DUP2 LT PUSH2 0x15F8 JUMPI PUSH2 0x15F7 PUSH2 0x2FAC JUMP JUMPDEST JUMPDEST SWAP1 PUSH0 MSTORE PUSH1 0x20 PUSH0 KECCAK256 SWAP1 PUSH1 0x9 MUL ADD PUSH1 0x8 ADD PUSH0 SWAP1 SLOAD SWAP1 PUSH2 0x100 EXP SWAP1 DIV PUSH1 0xFF AND PUSH1 0x4 DUP2 GT ISZERO PUSH2 0x1626 JUMPI PUSH2 0x1625 PUSH2 0x270E JUMP JUMPDEST JUMPDEST EQ ISZERO DUP1 PUSH2 0x1687 JUMPI POP PUSH1 0x3 PUSH1 0x4 DUP2 GT ISZERO PUSH2 0x1642 JUMPI PUSH2 0x1641 PUSH2 0x270E JUMP JUMPDEST JUMPDEST PUSH1 0x2 DUP5 DUP2 SLOAD DUP2 LT PUSH2 0x1656 JUMPI PUSH2 0x1655 PUSH2 0x2FAC JUMP JUMPDEST JUMPDEST SWAP1 PUSH0 MSTORE PUSH1 0x20 PUSH0 KECCAK256 SWAP1 PUSH1 0x9 MUL ADD PUSH1 0x8 ADD PUSH0 SWAP1 SLOAD SWAP1 PUSH2 0x100 EXP SWAP1 DIV PUSH1 0xFF AND PUSH1 0x4 DUP2 GT ISZERO PUSH2 0x1684 JUMPI PUSH2 0x1683 PUSH2 0x270E JUMP JUMPDEST JUMPDEST EQ ISZERO JUMPDEST PUSH2 0x16C6 JUMPI PUSH1 0x40 MLOAD PUSH32 0x8C379A000000000000000000000000000000000000000000000000000000000 DUP2 MSTORE PUSH1 0x4 ADD PUSH2 0x16BD SWAP1 PUSH2 0x33D7 JUMP JUMPDEST PUSH1 0x40 MLOAD DUP1 SWAP2 SUB SWAP1 REVERT JUMPDEST PUSH1 0x2 DUP4 DUP2 SLOAD DUP2 LT PUSH2 0x16DA JUMPI PUSH2 0x16D9 PUSH2 0x2FAC JUMP JUMPDEST JUMPDEST SWAP1 PUSH0 MSTORE PUSH1 0x20 PUSH0 KECCAK256 SWAP1 PUSH1 0x9 MUL ADD PUSH1 0x2 ADD PUSH1 0x40 MLOAD PUSH1 0x20 ADD PUSH2 0x16F9 SWAP2 SWAP1 PUSH2 0x32C3 JUMP JUMPDEST PUSH1 0x40 MLOAD PUSH1 0x20 DUP2 DUP4 SUB SUB DUP2 MSTORE SWAP1 PUSH1 0x40 MSTORE DUP1 MLOAD SWAP1 PUSH1 0x20 ADD KECCAK256 PUSH1 0x2 DUP5 DUP2 SLOAD DUP2 LT PUSH2 0x1723 JUMPI PUSH2 0x1722 PUSH2 0x2FAC JUMP JUMPDEST JUMPDEST SWAP1 PUSH0 MSTORE PUSH1 0x20 PUSH0 KECCAK256 SWAP1 PUSH1 0x9 MUL ADD PUSH1 0x7 ADD PUSH1 0x40 MLOAD PUSH1 0x20 ADD PUSH2 0x1742 SWAP2 SWAP1 PUSH2 0x32C3 JUMP JUMPDEST PUSH1 0x40 MLOAD PUSH1 0x20 DUP2 DUP4 SUB SUB DUP2 MSTORE SWAP1 PUSH1 0x40 MSTORE DUP1 MLOAD SWAP1 PUSH1 0x20 ADD KECCAK256 SUB PUSH2 0x1798 JUMPI PUSH1 0x40 MLOAD PUSH32 0x8C379A000000000000000000000000000000000000000000000000000000000 DUP2 MSTORE PUSH1 0x4 ADD PUSH2 0x178F SWAP1 PUSH2 0x348B JUMP JUMPDEST PUSH1 0x40 MLOAD DUP1 SWAP2 SUB SWAP1 REVERT JUMPDEST PUSH1 0x4 PUSH1 0x2 DUP5 DUP2 SLOAD DUP2 LT PUSH2 0x17AE JUMPI PUSH2 0x17AD PUSH2 0x2FAC JUMP JUMPDEST JUMPDEST SWAP1 PUSH0 MSTORE PUSH1 0x20 PUSH0 KECCAK256 SWAP1 PUSH1 0x9 MUL ADD PUSH1 0x8 ADD PUSH0 PUSH2 0x100 EXP DUP2 SLOAD DUP2 PUSH1 0xFF MUL NOT AND SWAP1 DUP4 PUSH1 0x4 DUP2 GT ISZERO PUSH2 0x17DE JUMPI PUSH2 0x17DD PUSH2 0x270E JUMP JUMPDEST JUMPDEST MUL OR SWAP1 SSTORE POP PUSH32 0x9524781EA03B1A019546916F30A82162BBA951AAAA69EF7CEF87BA96028B9406 DUP4 PUSH1 0x40 MLOAD PUSH2 0x1812 SWAP2 SWAP1 PUSH2 0x264F JUMP JUMPDEST PUSH1 0x40 MLOAD DUP1 SWAP2 SUB SWAP1 LOG1 PUSH1 0x2 DUP4 DUP2 SLOAD DUP2 LT PUSH2 0x182E JUMPI PUSH2 0x182D PUSH2 0x2FAC JUMP JUMPDEST JUMPDEST SWAP1 PUSH0 MSTORE PUSH1 0x20 PUSH0 KECCAK256 SWAP1 PUSH1 0x9 MUL ADD PUSH1 0x8 ADD PUSH0 SWAP1 SLOAD SWAP1 PUSH2 0x100 EXP SWAP1 DIV PUSH1 0xFF AND SWAP2 POP POP SWAP2 SWAP1 POP JUMP JUMPDEST PUSH0 DUP3 PUSH1 0x8 PUSH0 CALLER PUSH20 0xFFFFFFFFFFFFFFFFFFFFFFFFFFFFFFFFFFFFFFFF AND PUSH20 0xFFFFFFFFFFFFFFFFFFFFFFFFFFFFFFFFFFFFFFFF AND DUP2 MSTORE PUSH1 0x20 ADD SWAP1 DUP2 MSTORE PUSH1 0x20 ADD PUSH0 KECCAK256 PUSH0 DUP3 DUP2 MSTORE PUSH1 0x20 ADD SWAP1 DUP2 MSTORE PUSH1 0x20 ADD PUSH0 KECCAK256 PUSH0 SWAP1 SLOAD SWAP1 PUSH2 0x100 EXP SWAP1 DIV PUSH1 0xFF AND PUSH2 0x18EC JUMPI PUSH1 0x40 MLOAD PUSH32 0x8C379A000000000000000000000000000000000000000000000000000000000 DUP2 MSTORE PUSH1 0x4 ADD PUSH2 0x18E3 SWAP1 PUSH2 0x3519 JUMP JUMPDEST PUSH1 0x40 MLOAD DUP1 SWAP2 SUB SWAP1 REVERT JUMPDEST PUSH0 PUSH1 0x4 DUP2 GT ISZERO PUSH2 0x18FF JUMPI PUSH2 0x18FE PUSH2 0x270E JUMP JUMPDEST JUMPDEST PUSH1 0x2 DUP6 DUP2 SLOAD DUP2 LT PUSH2 0x1913 JUMPI PUSH2 0x1912 PUSH2 0x2FAC JUMP JUMPDEST JUMPDEST SWAP1 PUSH0 MSTORE PUSH1 0x20 PUSH0 KECCAK256 SWAP1 PUSH1 0x9 MUL ADD PUSH1 0x8 ADD PUSH0 SWAP1 SLOAD SWAP1 PUSH2 0x100 EXP SWAP1 DIV PUSH1 0xFF AND PUSH1 0x4 DUP2 GT ISZERO PUSH2 0x1941 JUMPI PUSH2 0x1940 PUSH2 0x270E JUMP JUMPDEST JUMPDEST EQ PUSH2 0x1981 JUMPI PUSH1 0x40 MLOAD PUSH32 0x8C379A000000000000000000000000000000000000000000000000000000000 DUP2 MSTORE PUSH1 0x4 ADD PUSH2 0x1978 SWAP1 PUSH2 0x3049 JUMP JUMPDEST PUSH1 0x40 MLOAD DUP1 SWAP2 SUB SWAP1 REVERT JUMPDEST PUSH1 0x1 PUSH1 0x2 DUP6 DUP2 SLOAD DUP2 LT PUSH2 0x1997 JUMPI PUSH2 0x1996 PUSH2 0x2FAC JUMP JUMPDEST JUMPDEST SWAP1 PUSH0 MSTORE PUSH1 0x20 PUSH0 KECCAK256 SWAP1 PUSH1 0x9 MUL ADD PUSH1 0x8 ADD PUSH0 PUSH2 0x100 EXP DUP2 SLOAD DUP2 PUSH1 0xFF MUL NOT AND SWAP1 DUP4 PUSH1 0x4 DUP2 GT ISZERO PUSH2 0x19C7 JUMPI PUSH2 0x19C6 PUSH2 0x270E JUMP JUMPDEST JUMPDEST MUL OR SWAP1 SSTORE POP DUP3 PUSH1 0xA PUSH0 DUP7 DUP2 MSTORE PUSH1 0x20 ADD SWAP1 DUP2 MSTORE PUSH1 0x20 ADD PUSH0 KECCAK256 PUSH0 PUSH2 0x100 EXP DUP2 SLOAD DUP2 PUSH20 0xFFFFFFFFFFFFFFFFFFFFFFFFFFFFFFFFFFFFFFFF MUL NOT AND SWAP1 DUP4 PUSH20 0xFFFFFFFFFFFFFFFFFFFFFFFFFFFFFFFFFFFFFFFF AND MUL OR SWAP1 SSTORE POP PUSH1 0x2 DUP5 DUP2 SLOAD DUP2 LT PUSH2 0x1A2F JUMPI PUSH2 0x1A2E PUSH2 0x2FAC JUMP JUMPDEST JUMPDEST SWAP1 PUSH0 MSTORE PUSH1 0x20 PUSH0 KECCAK256 SWAP1 PUSH1 0x9 MUL ADD PUSH1 0x8 ADD PUSH0 SWAP1 SLOAD SWAP1 PUSH2 0x100 EXP SWAP1 DIV PUSH1 0xFF AND SWAP2 POP POP SWAP3 SWAP2 POP POP JUMP JUMPDEST POP POP JUMP JUMPDEST PUSH1 0x4 PUSH1 0x20 MSTORE DUP1 PUSH0 MSTORE PUSH1 0x40 PUSH0 KECCAK256 PUSH0 SWAP2 POP SWAP1 POP DUP1 PUSH0 ADD DUP1 SLOAD PUSH2 0x1A77 SWAP1 PUSH2 0x2C74 JUMP JUMPDEST DUP1 PUSH1 0x1F ADD PUSH1 0x20 DUP1 SWAP2 DIV MUL PUSH1 0x20 ADD PUSH1 0x40 MLOAD SWAP1 DUP2 ADD PUSH1 0x40 MSTORE DUP1 SWAP3 SWAP2 SWAP1 DUP2 DUP2 MSTORE PUSH1 0x20 ADD DUP3 DUP1 SLOAD PUSH2 0x1AA3 SWAP1 PUSH2 0x2C74 JUMP JUMPDEST DUP1 ISZERO PUSH2 0x1AEE JUMPI DUP1 PUSH1 0x1F LT PUSH2 0x1AC5 JUMPI PUSH2 0x100 DUP1 DUP4 SLOAD DIV MUL DUP4 MSTORE SWAP2 PUSH1 0x20 ADD SWAP2 PUSH2 0x1AEE JUMP JUMPDEST DUP3 ADD SWAP2 SWAP1 PUSH0 MSTORE PUSH1 0x20 PUSH0 KECCAK256 SWAP1 JUMPDEST DUP2 SLOAD DUP2 MSTORE SWAP1 PUSH1 0x1 ADD SWAP1 PUSH1 0x20 ADD DUP1 DUP4 GT PUSH2 0x1AD1 JUMPI DUP3 SWAP1 SUB PUSH1 0x1F AND DUP3 ADD SWAP2 JUMPDEST POP POP POP POP POP SWAP1 DUP1 PUSH1 0x1 ADD DUP1 SLOAD PUSH2 0x1B03 SWAP1 PUSH2 0x2C74 JUMP JUMPDEST DUP1 PUSH1 0x1F ADD PUSH1 0x20 DUP1 SWAP2 DIV MUL PUSH1 0x20 ADD PUSH1 0x40 MLOAD SWAP1 DUP2 ADD PUSH1 0x40 MSTORE DUP1 SWAP3 SWAP2 SWAP1 DUP2 DUP2 MSTORE PUSH1 0x20 ADD DUP3 DUP1 SLOAD PUSH2 0x1B2F SWAP1 PUSH2 0x2C74 JUMP JUMPDEST DUP1 ISZERO PUSH2 0x1B7A JUMPI DUP1 PUSH1 0x1F LT PUSH2 0x1B51 JUMPI PUSH2 0x100 DUP1 DUP4 SLOAD DIV MUL DUP4 MSTORE SWAP2 PUSH1 0x20 ADD SWAP2 PUSH2 0x1B7A JUMP JUMPDEST DUP3 ADD SWAP2 SWAP1 PUSH0 MSTORE PUSH1 0x20 PUSH0 KECCAK256 SWAP1 JUMPDEST DUP2 SLOAD DUP2 MSTORE SWAP1 PUSH1 0x1 ADD SWAP1 PUSH1 0x20 ADD DUP1 DUP4 GT PUSH2 0x1B5D JUMPI DUP3 SWAP1 SUB PUSH1 0x1F AND DUP3 ADD SWAP2 JUMPDEST POP POP POP POP POP SWAP1 DUP1 PUSH1 0x2 ADD SLOAD SWAP1 DUP1 PUSH1 0x3 ADD DUP1 SLOAD PUSH2 0x1B95 SWAP1 PUSH2 0x2C74 JUMP JUMPDEST DUP1 PUSH1 0x1F ADD PUSH1 0x20 DUP1 SWAP2 DIV MUL PUSH1 0x20 ADD PUSH1 0x40 MLOAD SWAP1 DUP2 ADD PUSH1 0x40 MSTORE DUP1 SWAP3 SWAP2 SWAP1 DUP2 DUP2 MSTORE PUSH1 0x20 ADD DUP3 DUP1 SLOAD PUSH2 0x1BC1 SWAP1 PUSH2 0x2C74 JUMP JUMPDEST DUP1 ISZERO PUSH2 0x1C0C JUMPI DUP1 PUSH1 0x1F LT PUSH2 0x1BE3 JUMPI PUSH2 0x100 DUP1 DUP4 SLOAD DIV MUL DUP4 MSTORE SWAP2 PUSH1 0x20 ADD SWAP2 PUSH2 0x1C0C JUMP JUMPDEST DUP3 ADD SWAP2 SWAP1 PUSH0 MSTORE PUSH1 0x20 PUSH0 KECCAK256 SWAP1 JUMPDEST DUP2 SLOAD DUP2 MSTORE SWAP1 PUSH1 0x1 ADD SWAP1 PUSH1 0x20 ADD DUP1 DUP4 GT PUSH2 0x1BEF JUMPI DUP3 SWAP1 SUB PUSH1 0x1F AND DUP3 ADD SWAP2 JUMPDEST POP POP POP POP POP SWAP1 DUP1 PUSH1 0x4 ADD DUP1 SLOAD PUSH2 0x1C21 SWAP1 PUSH2 0x2C74 JUMP JUMPDEST DUP1 PUSH1 0x1F ADD PUSH1 0x20 DUP1 SWAP2 DIV MUL PUSH1 0x20 ADD PUSH1 0x40 MLOAD SWAP1 DUP2 ADD PUSH1 0x40 MSTORE DUP1 SWAP3 SWAP2 SWAP1 DUP2 DUP2 MSTORE PUSH1 0x20 ADD DUP3 DUP1 SLOAD PUSH2 0x1C4D SWAP1 PUSH2 0x2C74 JUMP JUMPDEST DUP1 ISZERO PUSH2 0x1C98 JUMPI DUP1 PUSH1 0x1F LT PUSH2 0x1C6F JUMPI PUSH2 0x100 DUP1 DUP4 SLOAD DIV MUL DUP4 MSTORE SWAP2 PUSH1 0x20 ADD SWAP2 PUSH2 0x1C98 JUMP JUMPDEST DUP3 ADD SWAP2 SWAP1 PUSH0 MSTORE PUSH1 0x20 PUSH0 KECCAK256 SWAP1 JUMPDEST DUP2 SLOAD DUP2 MSTORE SWAP1 PUSH1 0x1 ADD SWAP1 PUSH1 0x20 ADD DUP1 DUP4 GT PUSH2 0x1C7B JUMPI DUP3 SWAP1 SUB PUSH1 0x1F AND DUP3 ADD SWAP2 JUMPDEST POP POP POP POP POP SWAP1 POP DUP6 JUMP JUMPDEST PUSH0 DUP2 PUSH1 0x9 PUSH0 CALLER PUSH20 0xFFFFFFFFFFFFFFFFFFFFFFFFFFFFFFFFFFFFFFFF AND PUSH20 0xFFFFFFFFFFFFFFFFFFFFFFFFFFFFFFFFFFFFFFFF AND DUP2 MSTORE PUSH1 0x20 ADD SWAP1 DUP2 MSTORE PUSH1 0x20 ADD PUSH0 KECCAK256 PUSH0 DUP3 DUP2 MSTORE PUSH1 0x20 ADD SWAP1 DUP2 MSTORE PUSH1 0x20 ADD PUSH0 KECCAK256 PUSH0 SWAP1 SLOAD SWAP1 PUSH2 0x100 EXP SWAP1 DIV PUSH1 0xFF AND PUSH2 0x1D3C JUMPI PUSH1 0x40 MLOAD PUSH32 0x8C379A000000000000000000000000000000000000000000000000000000000 DUP2 MSTORE PUSH1 0x4 ADD PUSH2 0x1D33 SWAP1 PUSH2 0x318D JUMP JUMPDEST PUSH1 0x40 MLOAD DUP1 SWAP2 SUB SWAP1 REVERT JUMPDEST PUSH1 0x1 PUSH1 0x4 DUP2 GT ISZERO PUSH2 0x1D50 JUMPI PUSH2 0x1D4F PUSH2 0x270E JUMP JUMPDEST JUMPDEST PUSH1 0x2 DUP5 DUP2 SLOAD DUP2 LT PUSH2 0x1D64 JUMPI PUSH2 0x1D63 PUSH2 0x2FAC JUMP JUMPDEST JUMPDEST SWAP1 PUSH0 MSTORE PUSH1 0x20 PUSH0 KECCAK256 SWAP1 PUSH1 0x9 MUL ADD PUSH1 0x8 ADD PUSH0 SWAP1 SLOAD SWAP1 PUSH2 0x100 EXP SWAP1 DIV PUSH1 0xFF AND PUSH1 0x4 DUP2 GT ISZERO PUSH2 0x1D92 JUMPI PUSH2 0x1D91 PUSH2 0x270E JUMP JUMPDEST JUMPDEST EQ PUSH2 0x1DD2 JUMPI PUSH1 0x40 MLOAD PUSH32 0x8C379A000000000000000000000000000000000000000000000000000000000 DUP2 MSTORE PUSH1 0x4 ADD PUSH2 0x1DC9 SWAP1 PUSH2 0x321B JUMP JUMPDEST PUSH1 0x40 MLOAD DUP1 SWAP2 SUB SWAP1 REVERT JUMPDEST PUSH1 0x2 DUP4 DUP2 SLOAD DUP2 LT PUSH2 0x1DE6 JUMPI PUSH2 0x1DE5 PUSH2 0x2FAC JUMP JUMPDEST JUMPDEST SWAP1 PUSH0 MSTORE PUSH1 0x20 PUSH0 KECCAK256 SWAP1 PUSH1 0x9 MUL ADD PUSH1 0x2 ADD PUSH1 0x40 MLOAD PUSH1 0x20 ADD PUSH2 0x1E05 SWAP2 SWAP1 PUSH2 0x32C3 JUMP JUMPDEST PUSH1 0x40 MLOAD PUSH1 0x20 DUP2 DUP4 SUB SUB DUP2 MSTORE SWAP1 PUSH1 0x40 MSTORE DUP1 MLOAD SWAP1 PUSH1 0x20 ADD KECCAK256 PUSH1 0x2 DUP5 DUP2 SLOAD DUP2 LT PUSH2 0x1E2F JUMPI PUSH2 0x1E2E PUSH2 0x2FAC JUMP JUMPDEST JUMPDEST SWAP1 PUSH0 MSTORE PUSH1 0x20 PUSH0 KECCAK256 SWAP1 PUSH1 0x9 MUL ADD PUSH1 0x7 ADD PUSH1 0x40 MLOAD PUSH1 0x20 ADD PUSH2 0x1E4E SWAP2 SWAP1 PUSH2 0x32C3 JUMP JUMPDEST PUSH1 0x40 MLOAD PUSH1 0x20 DUP2 DUP4 SUB SUB DUP2 MSTORE SWAP1 PUSH1 0x40 MSTORE DUP1 MLOAD SWAP1 PUSH1 0x20 ADD KECCAK256 EQ PUSH2 0x1EA4 JUMPI PUSH1 0x40 MLOAD PUSH32 0x8C379A000000000000000000000000000000000000000000000000000000000 DUP2 MSTORE PUSH1 0x4 ADD PUSH2 0x1E9B SWAP1 PUSH2 0x35A7 JUMP JUMPDEST PUSH1 0x40 MLOAD DUP1 SWAP2 SUB SWAP1 REVERT JUMPDEST PUSH1 0x2 DUP1 DUP5 DUP2 SLOAD DUP2 LT PUSH2 0x1EB9 JUMPI PUSH2 0x1EB8 PUSH2 0x2FAC JUMP JUMPDEST JUMPDEST SWAP1 PUSH0 MSTORE PUSH1 0x20 PUSH0 KECCAK256 SWAP1 PUSH1 0x9 MUL ADD PUSH1 0x8 ADD PUSH0 PUSH2 0x100 EXP DUP2 SLOAD DUP2 PUSH1 0xFF MUL NOT AND SWAP1 DUP4 PUSH1 0x4 DUP2 GT ISZERO PUSH2 0x1EE9 JUMPI PUSH2 0x1EE8 PUSH2 0x270E JUMP JUMPDEST JUMPDEST MUL OR SWAP1 SSTORE POP PUSH1 0x2 DUP4 DUP2 SLOAD DUP2 LT PUSH2 0x1F02 JUMPI PUSH2 0x1F01 PUSH2 0x2FAC JUMP JUMPDEST JUMPDEST SWAP1 PUSH0 MSTORE PUSH1 0x20 PUSH0 KECCAK256 SWAP1 PUSH1 0x9 MUL ADD PUSH1 0x8 ADD PUSH0 SWAP1 SLOAD SWAP1 PUSH2 0x100 EXP SWAP1 DIV PUSH1 0xFF AND SWAP2 POP POP SWAP2 SWAP1 POP JUMP JUMPDEST PUSH2 0x1F2E PUSH2 0x2146 JUMP JUMPDEST PUSH0 PUSH20 0xFFFFFFFFFFFFFFFFFFFFFFFFFFFFFFFFFFFFFFFF AND DUP2 PUSH20 0xFFFFFFFFFFFFFFFFFFFFFFFFFFFFFFFFFFFFFFFF AND SUB PUSH2 0x1F9E JUMPI PUSH0 PUSH1 0x40 MLOAD PUSH32 0x1E4FBDF700000000000000000000000000000000000000000000000000000000 DUP2 MSTORE PUSH1 0x4 ADD PUSH2 0x1F95 SWAP2 SWAP1 PUSH2 0x2677 JUMP JUMPDEST PUSH1 0x40 MLOAD DUP1 SWAP2 SUB SWAP1 REVERT JUMPDEST PUSH2 0x1FA7 DUP2 PUSH2 0x21CD JUMP JUMPDEST POP JUMP JUMPDEST PUSH0 PUSH2 0x1FB3 PUSH2 0x2146 JUMP JUMPDEST PUSH1 0x1 PUSH1 0x8 PUSH0 DUP6 PUSH20 0xFFFFFFFFFFFFFFFFFFFFFFFFFFFFFFFFFFFFFFFF AND PUSH20 0xFFFFFFFFFFFFFFFFFFFFFFFFFFFFFFFFFFFFFFFF AND DUP2 MSTORE PUSH1 0x20 ADD SWAP1 DUP2 MSTORE PUSH1 0x20 ADD PUSH0 KECCAK256 PUSH0 DUP5 DUP2 MSTORE PUSH1 0x20 ADD SWAP1 DUP2 MSTORE PUSH1 0x20 ADD PUSH0 KECCAK256 PUSH0 PUSH2 0x100 EXP DUP2 SLOAD DUP2 PUSH1 0xFF MUL NOT AND SWAP1 DUP4 ISZERO ISZERO MUL OR SWAP1 SSTORE POP PUSH1 0x8 PUSH0 DUP5 PUSH20 0xFFFFFFFFFFFFFFFFFFFFFFFFFFFFFFFFFFFFFFFF AND PUSH20 0xFFFFFFFFFFFFFFFFFFFFFFFFFFFFFFFFFFFFFFFF AND DUP2 MSTORE PUSH1 0x20 ADD SWAP1 DUP2 MSTORE PUSH1 0x20 ADD PUSH0 KECCAK256 PUSH0 DUP4 DUP2 MSTORE PUSH1 0x20 ADD SWAP1 DUP2 MSTORE PUSH1 0x20 ADD PUSH0 KECCAK256 PUSH0 SWAP1 SLOAD SWAP1 PUSH2 0x100 EXP SWAP1 DIV PUSH1 0xFF AND SWAP1 POP SWAP3 SWAP2 POP POP JUMP JUMPDEST PUSH0 PUSH2 0x2081 PUSH2 0x2146 JUMP JUMPDEST PUSH1 0x1 PUSH1 0x9 PUSH0 DUP6 PUSH20 0xFFFFFFFFFFFFFFFFFFFFFFFFFFFFFFFFFFFFFFFF AND PUSH20 0xFFFFFFFFFFFFFFFFFFFFFFFFFFFFFFFFFFFFFFFF AND DUP2 MSTORE PUSH1 0x20 ADD SWAP1 DUP2 MSTORE PUSH1 0x20 ADD PUSH0 KECCAK256 PUSH0 DUP5 DUP2 MSTORE PUSH1 0x20 ADD SWAP1 DUP2 MSTORE PUSH1 0x20 ADD PUSH0 KECCAK256 PUSH0 PUSH2 0x100 EXP DUP2 SLOAD DUP2 PUSH1 0xFF MUL NOT AND SWAP1 DUP4 ISZERO ISZERO MUL OR SWAP1 SSTORE POP PUSH1 0x9 PUSH0 DUP5 PUSH20 0xFFFFFFFFFFFFFFFFFFFFFFFFFFFFFFFFFFFFFFFF AND PUSH20 0xFFFFFFFFFFFFFFFFFFFFFFFFFFFFFFFFFFFFFFFF AND DUP2 MSTORE PUSH1 0x20 ADD SWAP1 DUP2 MSTORE PUSH1 0x20 ADD PUSH0 KECCAK256 PUSH0 DUP4 DUP2 MSTORE PUSH1 0x20 ADD SWAP1 DUP2 MSTORE PUSH1 0x20 ADD PUSH0 KECCAK256 PUSH0 SWAP1 SLOAD SWAP1 PUSH2 0x100 EXP SWAP1 DIV PUSH1 0xFF AND SWAP1 POP SWAP3 SWAP2 POP POP JUMP JUMPDEST PUSH2 0x214E PUSH2 0x228E JUMP JUMPDEST PUSH20 0xFFFFFFFFFFFFFFFFFFFFFFFFFFFFFFFFFFFFFFFF AND PUSH2 0x216C PUSH2 0xE39 JUMP JUMPDEST PUSH20 0xFFFFFFFFFFFFFFFFFFFFFFFFFFFFFFFFFFFFFFFF AND EQ PUSH2 0x21CB JUMPI PUSH2 0x218F PUSH2 0x228E JUMP JUMPDEST PUSH1 0x40 MLOAD PUSH32 0x118CDAA700000000000000000000000000000000000000000000000000000000 DUP2 MSTORE PUSH1 0x4 ADD PUSH2 0x21C2 SWAP2 SWAP1 PUSH2 0x2677 JUMP JUMPDEST PUSH1 0x40 MLOAD DUP1 SWAP2 SUB SWAP1 REVERT JUMPDEST JUMP JUMPDEST PUSH0 DUP1 PUSH0 SWAP1 SLOAD SWAP1 PUSH2 0x100 EXP SWAP1 DIV PUSH20 0xFFFFFFFFFFFFFFFFFFFFFFFFFFFFFFFFFFFFFFFF AND SWAP1 POP DUP2 PUSH0 DUP1 PUSH2 0x100 EXP DUP2 SLOAD DUP2 PUSH20 0xFFFFFFFFFFFFFFFFFFFFFFFFFFFFFFFFFFFFFFFF MUL NOT AND SWAP1 DUP4 PUSH20 0xFFFFFFFFFFFFFFFFFFFFFFFFFFFFFFFFFFFFFFFF AND MUL OR SWAP1 SSTORE POP DUP2 PUSH20 0xFFFFFFFFFFFFFFFFFFFFFFFFFFFFFFFFFFFFFFFF AND DUP2 PUSH20 0xFFFFFFFFFFFFFFFFFFFFFFFFFFFFFFFFFFFFFFFF AND PUSH32 0x8BE0079C531659141344CD1FD0A4F28419497F9722A3DAAFE3B4186F6B6457E0 PUSH1 0x40 MLOAD PUSH1 0x40 MLOAD DUP1 SWAP2 SUB SWAP1 LOG3 POP POP JUMP JUMPDEST PUSH0 CALLER SWAP1 POP SWAP1 JUMP JUMPDEST PUSH1 0x40 MLOAD DUP1 PUSH2 0x120 ADD PUSH1 0x40 MSTORE DUP1 PUSH0 PUSH20 0xFFFFFFFFFFFFFFFFFFFFFFFFFFFFFFFFFFFFFFFF AND DUP2 MSTORE PUSH1 0x20 ADD PUSH0 PUSH20 0xFFFFFFFFFFFFFFFFFFFFFFFFFFFFFFFFFFFFFFFF AND DUP2 MSTORE PUSH1 0x20 ADD PUSH1 0x60 DUP2 MSTORE PUSH1 0x20 ADD PUSH1 0x60 DUP2 MSTORE PUSH1 0x20 ADD PUSH0 DUP2 MSTORE PUSH1 0x20 ADD PUSH0 DUP2 MSTORE PUSH1 0x20 ADD PUSH1 0x60 DUP2 MSTORE PUSH1 0x20 ADD PUSH1 0x60 DUP2 MSTORE PUSH1 0x20 ADD PUSH0 PUSH1 0x4 DUP2 GT ISZERO PUSH2 0x2314 JUMPI PUSH2 0x2313 PUSH2 0x270E JUMP JUMPDEST JUMPDEST DUP2 MSTORE POP SWAP1 JUMP JUMPDEST PUSH0 PUSH1 0x40 MLOAD SWAP1 POP SWAP1 JUMP JUMPDEST PUSH0 DUP1 REVERT JUMPDEST PUSH0 DUP1 REVERT JUMPDEST PUSH0 DUP2 SWAP1 POP SWAP2 SWAP1 POP JUMP JUMPDEST PUSH2 0x233D DUP2 PUSH2 0x232B JUMP JUMPDEST DUP2 EQ PUSH2 0x2347 JUMPI PUSH0 DUP1 REVERT JUMPDEST POP JUMP JUMPDEST PUSH0 DUP2 CALLDATALOAD SWAP1 POP PUSH2 0x2358 DUP2 PUSH2 0x2334 JUMP JUMPDEST SWAP3 SWAP2 POP POP JUMP JUMPDEST PUSH0 PUSH1 0x20 DUP3 DUP5 SUB SLT ISZERO PUSH2 0x2373 JUMPI PUSH2 0x2372 PUSH2 0x2323 JUMP JUMPDEST JUMPDEST PUSH0 PUSH2 0x2380 DUP5 DUP3 DUP6 ADD PUSH2 0x234A JUMP JUMPDEST SWAP2 POP POP SWAP3 SWAP2 POP POP JUMP JUMPDEST PUSH0 PUSH20 0xFFFFFFFFFFFFFFFFFFFFFFFFFFFFFFFFFFFFFFFF DUP3 AND SWAP1 POP SWAP2 SWAP1 POP JUMP JUMPDEST PUSH0 PUSH2 0x23B2 DUP3 PUSH2 0x2389 JUMP JUMPDEST SWAP1 POP SWAP2 SWAP1 POP JUMP JUMPDEST PUSH2 0x23C2 DUP2 PUSH2 0x23A8 JUMP JUMPDEST DUP2 EQ PUSH2 0x23CC JUMPI PUSH0 DUP1 REVERT JUMPDEST POP JUMP JUMPDEST PUSH0 DUP2 CALLDATALOAD SWAP1 POP PUSH2 0x23DD DUP2 PUSH2 0x23B9 JUMP JUMPDEST SWAP3 SWAP2 POP POP JUMP JUMPDEST PUSH0 DUP1 REVERT JUMPDEST PUSH0 DUP1 REVERT JUMPDEST PUSH0 PUSH1 0x1F NOT PUSH1 0x1F DUP4 ADD AND SWAP1 POP SWAP2 SWAP1 POP JUMP JUMPDEST PUSH32 0x4E487B7100000000000000000000000000000000000000000000000000000000 PUSH0 MSTORE PUSH1 0x41 PUSH1 0x4 MSTORE PUSH1 0x24 PUSH0 REVERT JUMPDEST PUSH2 0x2431 DUP3 PUSH2 0x23EB JUMP JUMPDEST DUP2 ADD DUP2 DUP2 LT PUSH8 0xFFFFFFFFFFFFFFFF DUP3 GT OR ISZERO PUSH2 0x2450 JUMPI PUSH2 0x244F PUSH2 0x23FB JUMP JUMPDEST JUMPDEST DUP1 PUSH1 0x40 MSTORE POP POP POP JUMP JUMPDEST PUSH0 PUSH2 0x2462 PUSH2 0x231A JUMP JUMPDEST SWAP1 POP PUSH2 0x246E DUP3 DUP3 PUSH2 0x2428 JUMP JUMPDEST SWAP2 SWAP1 POP JUMP JUMPDEST PUSH0 PUSH8 0xFFFFFFFFFFFFFFFF DUP3 GT ISZERO PUSH2 0x248D JUMPI PUSH2 0x248C PUSH2 0x23FB JUMP JUMPDEST JUMPDEST PUSH2 0x2496 DUP3 PUSH2 0x23EB JUMP JUMPDEST SWAP1 POP PUSH1 0x20 DUP2 ADD SWAP1 POP SWAP2 SWAP1 POP JUMP JUMPDEST DUP3 DUP2 DUP4 CALLDATACOPY PUSH0 DUP4 DUP4 ADD MSTORE POP POP POP JUMP JUMPDEST PUSH0 PUSH2 0x24C3 PUSH2 0x24BE DUP5 PUSH2 0x2473 JUMP JUMPDEST PUSH2 0x2459 JUMP JUMPDEST SWAP1 POP DUP3 DUP2 MSTORE PUSH1 0x20 DUP2 ADD DUP5 DUP5 DUP5 ADD GT ISZERO PUSH2 0x24DF JUMPI PUSH2 0x24DE PUSH2 0x23E7 JUMP JUMPDEST JUMPDEST PUSH2 0x24EA DUP5 DUP3 DUP6 PUSH2 0x24A3 JUMP JUMPDEST POP SWAP4 SWAP3 POP POP POP JUMP JUMPDEST PUSH0 DUP3 PUSH1 0x1F DUP4 ADD SLT PUSH2 0x2506 JUMPI PUSH2 0x2505 PUSH2 0x23E3 JUMP JUMPDEST JUMPDEST DUP2 CALLDATALOAD PUSH2 0x2516 DUP5 DUP3 PUSH1 0x20 DUP7 ADD PUSH2 0x24B1 JUMP JUMPDEST SWAP2 POP POP SWAP3 SWAP2 POP POP JUMP JUMPDEST PUSH0 DUP1 PUSH0 DUP1 PUSH0 DUP1 PUSH0 DUP1 PUSH2 0x100 DUP10 DUP12 SUB SLT ISZERO PUSH2 0x253C JUMPI PUSH2 0x253B PUSH2 0x2323 JUMP JUMPDEST JUMPDEST PUSH0 PUSH2 0x2549 DUP12 DUP3 DUP13 ADD PUSH2 0x23CF JUMP JUMPDEST SWAP9 POP POP PUSH1 0x20 PUSH2 0x255A DUP12 DUP3 DUP13 ADD PUSH2 0x23CF JUMP JUMPDEST SWAP8 POP POP PUSH1 0x40 DUP10 ADD CALLDATALOAD PUSH8 0xFFFFFFFFFFFFFFFF DUP2 GT ISZERO PUSH2 0x257B JUMPI PUSH2 0x257A PUSH2 0x2327 JUMP JUMPDEST JUMPDEST PUSH2 0x2587 DUP12 DUP3 DUP13 ADD PUSH2 0x24F2 JUMP JUMPDEST SWAP7 POP POP PUSH1 0x60 DUP10 ADD CALLDATALOAD PUSH8 0xFFFFFFFFFFFFFFFF DUP2 GT ISZERO PUSH2 0x25A8 JUMPI PUSH2 0x25A7 PUSH2 0x2327 JUMP JUMPDEST JUMPDEST PUSH2 0x25B4 DUP12 DUP3 DUP13 ADD PUSH2 0x24F2 JUMP JUMPDEST SWAP6 POP POP PUSH1 0x80 PUSH2 0x25C5 DUP12 DUP3 DUP13 ADD PUSH2 0x234A JUMP JUMPDEST SWAP5 POP POP PUSH1 0xA0 PUSH2 0x25D6 DUP12 DUP3 DUP13 ADD PUSH2 0x234A JUMP JUMPDEST SWAP4 POP POP PUSH1 0xC0 DUP10 ADD CALLDATALOAD PUSH8 0xFFFFFFFFFFFFFFFF DUP2 GT ISZERO PUSH2 0x25F7 JUMPI PUSH2 0x25F6 PUSH2 0x2327 JUMP JUMPDEST JUMPDEST PUSH2 0x2603 DUP12 DUP3 DUP13 ADD PUSH2 0x24F2 JUMP JUMPDEST SWAP3 POP POP PUSH1 0xE0 DUP10 ADD CALLDATALOAD PUSH8 0xFFFFFFFFFFFFFFFF DUP2 GT ISZERO PUSH2 0x2624 JUMPI PUSH2 0x2623 PUSH2 0x2327 JUMP JUMPDEST JUMPDEST PUSH2 0x2630 DUP12 DUP3 DUP13 ADD PUSH2 0x24F2 JUMP JUMPDEST SWAP2 POP POP SWAP3 SWAP6 SWAP9 POP SWAP3 SWAP6 SWAP9 SWAP1 SWAP4 SWAP7 POP JUMP JUMPDEST PUSH2 0x2649 DUP2 PUSH2 0x232B JUMP JUMPDEST DUP3 MSTORE POP POP JUMP JUMPDEST PUSH0 PUSH1 0x20 DUP3 ADD SWAP1 POP PUSH2 0x2662 PUSH0 DUP4 ADD DUP5 PUSH2 0x2640 JUMP JUMPDEST SWAP3 SWAP2 POP POP JUMP JUMPDEST PUSH2 0x2671 DUP2 PUSH2 0x23A8 JUMP JUMPDEST DUP3 MSTORE POP POP JUMP JUMPDEST PUSH0 PUSH1 0x20 DUP3 ADD SWAP1 POP PUSH2 0x268A PUSH0 DUP4 ADD DUP5 PUSH2 0x2668 JUMP JUMPDEST SWAP3 SWAP2 POP POP JUMP JUMPDEST PUSH2 0x2699 DUP2 PUSH2 0x23A8 JUMP JUMPDEST DUP3 MSTORE POP POP JUMP JUMPDEST PUSH0 DUP2 MLOAD SWAP1 POP SWAP2 SWAP1 POP JUMP JUMPDEST PUSH0 DUP3 DUP3 MSTORE PUSH1 0x20 DUP3 ADD SWAP1 POP SWAP3 SWAP2 POP POP JUMP JUMPDEST DUP3 DUP2 DUP4 MCOPY PUSH0 DUP4 DUP4 ADD MSTORE POP POP POP JUMP JUMPDEST PUSH0 PUSH2 0x26D1 DUP3 PUSH2 0x269F JUMP JUMPDEST PUSH2 0x26DB DUP2 DUP6 PUSH2 0x26A9 JUMP JUMPDEST SWAP4 POP PUSH2 0x26EB DUP2 DUP6 PUSH1 0x20 DUP7 ADD PUSH2 0x26B9 JUMP JUMPDEST PUSH2 0x26F4 DUP2 PUSH2 0x23EB JUMP JUMPDEST DUP5 ADD SWAP2 POP POP SWAP3 SWAP2 POP POP JUMP JUMPDEST PUSH2 0x2708 DUP2 PUSH2 0x232B JUMP JUMPDEST DUP3 MSTORE POP POP JUMP JUMPDEST PUSH32 0x4E487B7100000000000000000000000000000000000000000000000000000000 PUSH0 MSTORE PUSH1 0x21 PUSH1 0x4 MSTORE PUSH1 0x24 PUSH0 REVERT JUMPDEST PUSH1 0x5 DUP2 LT PUSH2 0x274C JUMPI PUSH2 0x274B PUSH2 0x270E JUMP JUMPDEST JUMPDEST POP JUMP JUMPDEST PUSH0 DUP2 SWAP1 POP PUSH2 0x275C DUP3 PUSH2 0x273B JUMP JUMPDEST SWAP2 SWAP1 POP JUMP JUMPDEST PUSH0 PUSH2 0x276B DUP3 PUSH2 0x274F JUMP JUMPDEST SWAP1 POP SWAP2 SWAP1 POP JUMP JUMPDEST PUSH2 0x277B DUP2 PUSH2 0x2761 JUMP JUMPDEST DUP3 MSTORE POP POP JUMP JUMPDEST PUSH0 PUSH2 0x120 DUP4 ADD PUSH0 DUP4 ADD MLOAD PUSH2 0x2797 PUSH0 DUP7 ADD DUP3 PUSH2 0x2690 JUMP JUMPDEST POP PUSH1 0x20 DUP4 ADD MLOAD PUSH2 0x27AA PUSH1 0x20 DUP7 ADD DUP3 PUSH2 0x2690 JUMP JUMPDEST POP PUSH1 0x40 DUP4 ADD MLOAD DUP5 DUP3 SUB PUSH1 0x40 DUP7 ADD MSTORE PUSH2 0x27C2 DUP3 DUP3 PUSH2 0x26C7 JUMP JUMPDEST SWAP2 POP POP PUSH1 0x60 DUP4 ADD MLOAD DUP5 DUP3 SUB PUSH1 0x60 DUP7 ADD MSTORE PUSH2 0x27DC DUP3 DUP3 PUSH2 0x26C7 JUMP JUMPDEST SWAP2 POP POP PUSH1 0x80 DUP4 ADD MLOAD PUSH2 0x27F1 PUSH1 0x80 DUP7 ADD DUP3 PUSH2 0x26FF JUMP JUMPDEST POP PUSH1 0xA0 DUP4 ADD MLOAD PUSH2 0x2804 PUSH1 0xA0 DUP7 ADD DUP3 PUSH2 0x26FF JUMP JUMPDEST POP PUSH1 0xC0 DUP4 ADD MLOAD DUP5 DUP3 SUB PUSH1 0xC0 DUP7 ADD MSTORE PUSH2 0x281C DUP3 DUP3 PUSH2 0x26C7 JUMP JUMPDEST SWAP2 POP POP PUSH1 0xE0 DUP4 ADD MLOAD DUP5 DUP3 SUB PUSH1 0xE0 DUP7 ADD MSTORE PUSH2 0x2836 DUP3 DUP3 PUSH2 0x26C7 JUMP JUMPDEST SWAP2 POP POP PUSH2 0x100 DUP4 ADD MLOAD PUSH2 0x284D PUSH2 0x100 DUP7 ADD DUP3 PUSH2 0x2772 JUMP JUMPDEST POP DUP1 SWAP2 POP POP SWAP3 SWAP2 POP POP JUMP JUMPDEST PUSH0 PUSH1 0x20 DUP3 ADD SWAP1 POP DUP2 DUP2 SUB PUSH0 DUP4 ADD MSTORE PUSH2 0x2870 DUP2 DUP5 PUSH2 0x2781 JUMP JUMPDEST SWAP1 POP SWAP3 SWAP2 POP POP JUMP JUMPDEST PUSH0 DUP3 DUP3 MSTORE PUSH1 0x20 DUP3 ADD SWAP1 POP SWAP3 SWAP2 POP POP JUMP JUMPDEST PUSH0 PUSH2 0x2892 DUP3 PUSH2 0x269F JUMP JUMPDEST PUSH2 0x289C DUP2 DUP6 PUSH2 0x2878 JUMP JUMPDEST SWAP4 POP PUSH2 0x28AC DUP2 DUP6 PUSH1 0x20 DUP7 ADD PUSH2 0x26B9 JUMP JUMPDEST PUSH2 0x28B5 DUP2 PUSH2 0x23EB JUMP JUMPDEST DUP5 ADD SWAP2 POP POP SWAP3 SWAP2 POP POP JUMP JUMPDEST PUSH0 PUSH1 0x20 DUP3 ADD SWAP1 POP DUP2 DUP2 SUB PUSH0 DUP4 ADD MSTORE PUSH2 0x28D8 DUP2 DUP5 PUSH2 0x2888 JUMP JUMPDEST SWAP1 POP SWAP3 SWAP2 POP POP JUMP JUMPDEST PUSH2 0x28E9 DUP2 PUSH2 0x2761 JUMP JUMPDEST DUP3 MSTORE POP POP JUMP JUMPDEST PUSH0 PUSH1 0x80 DUP3 ADD SWAP1 POP PUSH2 0x2902 PUSH0 DUP4 ADD DUP8 PUSH2 0x2640 JUMP JUMPDEST PUSH2 0x290F PUSH1 0x20 DUP4 ADD DUP7 PUSH2 0x2668 JUMP JUMPDEST PUSH2 0x291C PUSH1 0x40 DUP4 ADD DUP6 PUSH2 0x2668 JUMP JUMPDEST PUSH2 0x2929 PUSH1 0x60 DUP4 ADD DUP5 PUSH2 0x28E0 JUMP JUMPDEST SWAP6 SWAP5 POP POP POP POP POP JUMP JUMPDEST PUSH0 DUP1 PUSH1 0x40 DUP4 DUP6 SUB SLT ISZERO PUSH2 0x2948 JUMPI PUSH2 0x2947 PUSH2 0x2323 JUMP JUMPDEST JUMPDEST PUSH0 DUP4 ADD CALLDATALOAD PUSH8 0xFFFFFFFFFFFFFFFF DUP2 GT ISZERO PUSH2 0x2965 JUMPI PUSH2 0x2964 PUSH2 0x2327 JUMP JUMPDEST JUMPDEST PUSH2 0x2971 DUP6 DUP3 DUP7 ADD PUSH2 0x24F2 JUMP JUMPDEST SWAP3 POP POP PUSH1 0x20 PUSH2 0x2982 DUP6 DUP3 DUP7 ADD PUSH2 0x234A JUMP JUMPDEST SWAP2 POP POP SWAP3 POP SWAP3 SWAP1 POP JUMP JUMPDEST PUSH0 PUSH2 0x120 DUP3 ADD SWAP1 POP PUSH2 0x29A0 PUSH0 DUP4 ADD DUP13 PUSH2 0x2668 JUMP JUMPDEST PUSH2 0x29AD PUSH1 0x20 DUP4 ADD DUP12 PUSH2 0x2668 JUMP JUMPDEST DUP2 DUP2 SUB PUSH1 0x40 DUP4 ADD MSTORE PUSH2 0x29BF DUP2 DUP11 PUSH2 0x2888 JUMP JUMPDEST SWAP1 POP DUP2 DUP2 SUB PUSH1 0x60 DUP4 ADD MSTORE PUSH2 0x29D3 DUP2 DUP10 PUSH2 0x2888 JUMP JUMPDEST SWAP1 POP PUSH2 0x29E2 PUSH1 0x80 DUP4 ADD DUP9 PUSH2 0x2640 JUMP JUMPDEST PUSH2 0x29EF PUSH1 0xA0 DUP4 ADD DUP8 PUSH2 0x2640 JUMP JUMPDEST DUP2 DUP2 SUB PUSH1 0xC0 DUP4 ADD MSTORE PUSH2 0x2A01 DUP2 DUP7 PUSH2 0x2888 JUMP JUMPDEST SWAP1 POP DUP2 DUP2 SUB PUSH1 0xE0 DUP4 ADD MSTORE PUSH2 0x2A15 DUP2 DUP6 PUSH2 0x2888 JUMP JUMPDEST SWAP1 POP PUSH2 0x2A25 PUSH2 0x100 DUP4 ADD DUP5 PUSH2 0x28E0 JUMP JUMPDEST SWAP11 SWAP10 POP POP POP POP POP POP POP POP POP POP JUMP JUMPDEST PUSH0 PUSH1 0x20 DUP3 ADD SWAP1 POP PUSH2 0x2A46 PUSH0 DUP4 ADD DUP5 PUSH2 0x28E0 JUMP JUMPDEST SWAP3 SWAP2 POP POP JUMP JUMPDEST PUSH0 DUP1 PUSH0 DUP1 PUSH0 PUSH1 0xA0 DUP7 DUP9 SUB SLT ISZERO PUSH2 0x2A65 JUMPI PUSH2 0x2A64 PUSH2 0x2323 JUMP JUMPDEST JUMPDEST PUSH0 DUP7 ADD CALLDATALOAD PUSH8 0xFFFFFFFFFFFFFFFF DUP2 GT ISZERO PUSH2 0x2A82 JUMPI PUSH2 0x2A81 PUSH2 0x2327 JUMP JUMPDEST JUMPDEST PUSH2 0x2A8E DUP9 DUP3 DUP10 ADD PUSH2 0x24F2 JUMP JUMPDEST SWAP6 POP POP PUSH1 0x20 DUP7 ADD CALLDATALOAD PUSH8 0xFFFFFFFFFFFFFFFF DUP2 GT ISZERO PUSH2 0x2AAF JUMPI PUSH2 0x2AAE PUSH2 0x2327 JUMP JUMPDEST JUMPDEST PUSH2 0x2ABB DUP9 DUP3 DUP10 ADD PUSH2 0x24F2 JUMP JUMPDEST SWAP5 POP POP PUSH1 0x40 PUSH2 0x2ACC DUP9 DUP3 DUP10 ADD PUSH2 0x234A JUMP JUMPDEST SWAP4 POP POP PUSH1 0x60 DUP7 ADD CALLDATALOAD PUSH8 0xFFFFFFFFFFFFFFFF DUP2 GT ISZERO PUSH2 0x2AED JUMPI PUSH2 0x2AEC PUSH2 0x2327 JUMP JUMPDEST JUMPDEST PUSH2 0x2AF9 DUP9 DUP3 DUP10 ADD PUSH2 0x24F2 JUMP JUMPDEST SWAP3 POP POP PUSH1 0x80 DUP7 ADD CALLDATALOAD PUSH8 0xFFFFFFFFFFFFFFFF DUP2 GT ISZERO PUSH2 0x2B1A JUMPI PUSH2 0x2B19 PUSH2 0x2327 JUMP JUMPDEST JUMPDEST PUSH2 0x2B26 DUP9 DUP3 DUP10 ADD PUSH2 0x24F2 JUMP JUMPDEST SWAP2 POP POP SWAP3 SWAP6 POP SWAP3 SWAP6 SWAP1 SWAP4 POP JUMP JUMPDEST PUSH0 DUP1 PUSH1 0x40 DUP4 DUP6 SUB SLT ISZERO PUSH2 0x2B49 JUMPI PUSH2 0x2B48 PUSH2 0x2323 JUMP JUMPDEST JUMPDEST PUSH0 PUSH2 0x2B56 DUP6 DUP3 DUP7 ADD PUSH2 0x234A JUMP JUMPDEST SWAP3 POP POP PUSH1 0x20 PUSH2 0x2B67 DUP6 DUP3 DUP7 ADD PUSH2 0x23CF JUMP JUMPDEST SWAP2 POP POP SWAP3 POP SWAP3 SWAP1 POP JUMP JUMPDEST PUSH0 DUP1 PUSH1 0x40 DUP4 DUP6 SUB SLT ISZERO PUSH2 0x2B87 JUMPI PUSH2 0x2B86 PUSH2 0x2323 JUMP JUMPDEST JUMPDEST PUSH0 PUSH2 0x2B94 DUP6 DUP3 DUP7 ADD PUSH2 0x23CF JUMP JUMPDEST SWAP3 POP POP PUSH1 0x20 PUSH2 0x2BA5 DUP6 DUP3 DUP7 ADD PUSH2 0x234A JUMP JUMPDEST SWAP2 POP POP SWAP3 POP SWAP3 SWAP1 POP JUMP JUMPDEST PUSH0 PUSH1 0x20 DUP3 DUP5 SUB SLT ISZERO PUSH2 0x2BC4 JUMPI PUSH2 0x2BC3 PUSH2 0x2323 JUMP JUMPDEST JUMPDEST PUSH0 PUSH2 0x2BD1 DUP5 DUP3 DUP6 ADD PUSH2 0x23CF JUMP JUMPDEST SWAP2 POP POP SWAP3 SWAP2 POP POP JUMP JUMPDEST PUSH0 PUSH1 0xA0 DUP3 ADD SWAP1 POP DUP2 DUP2 SUB PUSH0 DUP4 ADD MSTORE PUSH2 0x2BF2 DUP2 DUP9 PUSH2 0x2888 JUMP JUMPDEST SWAP1 POP DUP2 DUP2 SUB PUSH1 0x20 DUP4 ADD MSTORE PUSH2 0x2C06 DUP2 DUP8 PUSH2 0x2888 JUMP JUMPDEST SWAP1 POP PUSH2 0x2C15 PUSH1 0x40 DUP4 ADD DUP7 PUSH2 0x2640 JUMP JUMPDEST DUP2 DUP2 SUB PUSH1 0x60 DUP4 ADD MSTORE PUSH2 0x2C27 DUP2 DUP6 PUSH2 0x2888 JUMP JUMPDEST SWAP1 POP DUP2 DUP2 SUB PUSH1 0x80 DUP4 ADD MSTORE PUSH2 0x2C3B DUP2 DUP5 PUSH2 0x2888 JUMP JUMPDEST SWAP1 POP SWAP7 SWAP6 POP POP POP POP POP POP JUMP JUMPDEST PUSH32 0x4E487B7100000000000000000000000000000000000000000000000000000000 PUSH0 MSTORE PUSH1 0x22 PUSH1 0x4 MSTORE PUSH1 0x24 PUSH0 REVERT JUMPDEST PUSH0 PUSH1 0x2 DUP3 DIV SWAP1 POP PUSH1 0x1 DUP3 AND DUP1 PUSH2 0x2C8B JUMPI PUSH1 0x7F DUP3 AND SWAP2 POP JUMPDEST PUSH1 0x20 DUP3 LT DUP2 SUB PUSH2 0x2C9E JUMPI PUSH2 0x2C9D PUSH2 0x2C47 JUMP JUMPDEST JUMPDEST POP SWAP2 SWAP1 POP JUMP JUMPDEST PUSH0 DUP2 SWAP1 POP DUP2 PUSH0 MSTORE PUSH1 0x20 PUSH0 KECCAK256 SWAP1 POP SWAP2 SWAP1 POP JUMP JUMPDEST PUSH0 PUSH1 0x20 PUSH1 0x1F DUP4 ADD DIV SWAP1 POP SWAP2 SWAP1 POP JUMP JUMPDEST PUSH0 DUP3 DUP3 SHL SWAP1 POP SWAP3 SWAP2 POP POP JUMP JUMPDEST PUSH0 PUSH1 0x8 DUP4 MUL PUSH2 0x2D00 PUSH32 0xFFFFFFFFFFFFFFFFFFFFFFFFFFFFFFFFFFFFFFFFFFFFFFFFFFFFFFFFFFFFFFFF DUP3 PUSH2 0x2CC5 JUMP JUMPDEST PUSH2 0x2D0A DUP7 DUP4 PUSH2 0x2CC5 JUMP JUMPDEST SWAP6 POP DUP1 NOT DUP5 AND SWAP4 POP DUP1 DUP7 AND DUP5 OR SWAP3 POP POP POP SWAP4 SWAP3 POP POP POP JUMP JUMPDEST PUSH0 DUP2 SWAP1 POP SWAP2 SWAP1 POP JUMP JUMPDEST PUSH0 PUSH2 0x2D45 PUSH2 0x2D40 PUSH2 0x2D3B DUP5 PUSH2 0x232B JUMP JUMPDEST PUSH2 0x2D22 JUMP JUMPDEST PUSH2 0x232B JUMP JUMPDEST SWAP1 POP SWAP2 SWAP1 POP JUMP JUMPDEST PUSH0 DUP2 SWAP1 POP SWAP2 SWAP1 POP JUMP JUMPDEST PUSH2 0x2D5E DUP4 PUSH2 0x2D2B JUMP JUMPDEST PUSH2 0x2D72 PUSH2 0x2D6A DUP3 PUSH2 0x2D4C JUMP JUMPDEST DUP5 DUP5 SLOAD PUSH2 0x2CD1 JUMP JUMPDEST DUP3 SSTORE POP POP POP POP JUMP JUMPDEST PUSH0 SWAP1 JUMP JUMPDEST PUSH2 0x2D86 PUSH2 0x2D7A JUMP JUMPDEST PUSH2 0x2D91 DUP2 DUP5 DUP5 PUSH2 0x2D55 JUMP JUMPDEST POP POP POP JUMP JUMPDEST JUMPDEST DUP2 DUP2 LT ISZERO PUSH2 0x2DB4 JUMPI PUSH2 0x2DA9 PUSH0 DUP3 PUSH2 0x2D7E JUMP JUMPDEST PUSH1 0x1 DUP2 ADD SWAP1 POP PUSH2 0x2D97 JUMP JUMPDEST POP POP JUMP JUMPDEST PUSH1 0x1F DUP3 GT ISZERO PUSH2 0x2DF9 JUMPI PUSH2 0x2DCA DUP2 PUSH2 0x2CA4 JUMP JUMPDEST PUSH2 0x2DD3 DUP5 PUSH2 0x2CB6 JUMP JUMPDEST DUP2 ADD PUSH1 0x20 DUP6 LT ISZERO PUSH2 0x2DE2 JUMPI DUP2 SWAP1 POP JUMPDEST PUSH2 0x2DF6 PUSH2 0x2DEE DUP6 PUSH2 0x2CB6 JUMP JUMPDEST DUP4 ADD DUP3 PUSH2 0x2D96 JUMP JUMPDEST POP POP JUMPDEST POP POP POP JUMP JUMPDEST PUSH0 DUP3 DUP3 SHR SWAP1 POP SWAP3 SWAP2 POP POP JUMP JUMPDEST PUSH0 PUSH2 0x2E19 PUSH0 NOT DUP5 PUSH1 0x8 MUL PUSH2 0x2DFE JUMP JUMPDEST NOT DUP1 DUP4 AND SWAP2 POP POP SWAP3 SWAP2 POP POP JUMP JUMPDEST PUSH0 PUSH2 0x2E31 DUP4 DUP4 PUSH2 0x2E0A JUMP JUMPDEST SWAP2 POP DUP3 PUSH1 0x2 MUL DUP3 OR SWAP1 POP SWAP3 SWAP2 POP POP JUMP JUMPDEST PUSH2 0x2E4A DUP3 PUSH2 0x269F JUMP JUMPDEST PUSH8 0xFFFFFFFFFFFFFFFF DUP2 GT ISZERO PUSH2 0x2E63 JUMPI PUSH2 0x2E62 PUSH2 0x23FB JUMP JUMPDEST JUMPDEST PUSH2 0x2E6D DUP3 SLOAD PUSH2 0x2C74 JUMP JUMPDEST PUSH2 0x2E78 DUP3 DUP3 DUP6 PUSH2 0x2DB8 JUMP JUMPDEST PUSH0 PUSH1 0x20 SWAP1 POP PUSH1 0x1F DUP4 GT PUSH1 0x1 DUP2 EQ PUSH2 0x2EA9 JUMPI PUSH0 DUP5 ISZERO PUSH2 0x2E97 JUMPI DUP3 DUP8 ADD MLOAD SWAP1 POP JUMPDEST PUSH2 0x2EA1 DUP6 DUP3 PUSH2 0x2E26 JUMP JUMPDEST DUP7 SSTORE POP PUSH2 0x2F08 JUMP JUMPDEST PUSH1 0x1F NOT DUP5 AND PUSH2 0x2EB7 DUP7 PUSH2 0x2CA4 JUMP JUMPDEST PUSH0 JUMPDEST DUP3 DUP2 LT ISZERO PUSH2 0x2EDE JUMPI DUP5 DUP10 ADD MLOAD DUP3 SSTORE PUSH1 0x1 DUP3 ADD SWAP2 POP PUSH1 0x20 DUP6 ADD SWAP5 POP PUSH1 0x20 DUP2 ADD SWAP1 POP PUSH2 0x2EB9 JUMP JUMPDEST DUP7 DUP4 LT ISZERO PUSH2 0x2EFB JUMPI DUP5 DUP10 ADD MLOAD PUSH2 0x2EF7 PUSH1 0x1F DUP10 AND DUP3 PUSH2 0x2E0A JUMP JUMPDEST DUP4 SSTORE POP JUMPDEST PUSH1 0x1 PUSH1 0x2 DUP9 MUL ADD DUP9 SSTORE POP POP POP JUMPDEST POP POP POP POP POP POP JUMP JUMPDEST PUSH32 0x4E487B7100000000000000000000000000000000000000000000000000000000 PUSH0 MSTORE PUSH1 0x11 PUSH1 0x4 MSTORE PUSH1 0x24 PUSH0 REVERT JUMPDEST PUSH0 PUSH2 0x2F47 DUP3 PUSH2 0x232B JUMP JUMPDEST SWAP2 POP PUSH2 0x2F52 DUP4 PUSH2 0x232B JUMP JUMPDEST SWAP3 POP DUP3 DUP3 SUB SWAP1 POP DUP2 DUP2 GT ISZERO PUSH2 0x2F6A JUMPI PUSH2 0x2F69 PUSH2 0x2F10 JUMP JUMPDEST JUMPDEST SWAP3 SWAP2 POP POP JUMP JUMPDEST PUSH0 PUSH1 0x60 DUP3 ADD SWAP1 POP PUSH2 0x2F83 PUSH0 DUP4 ADD DUP7 PUSH2 0x2668 JUMP JUMPDEST DUP2 DUP2 SUB PUSH1 0x20 DUP4 ADD MSTORE PUSH2 0x2F95 DUP2 DUP6 PUSH2 0x2888 JUMP JUMPDEST SWAP1 POP PUSH2 0x2FA4 PUSH1 0x40 DUP4 ADD DUP5 PUSH2 0x2640 JUMP JUMPDEST SWAP5 SWAP4 POP POP POP POP JUMP JUMPDEST PUSH32 0x4E487B7100000000000000000000000000000000000000000000000000000000 PUSH0 MSTORE PUSH1 0x32 PUSH1 0x4 MSTORE PUSH1 0x24 PUSH0 REVERT JUMPDEST PUSH32 0x44656C69657665727920737461747573206D75737420626520696E2050656E64 PUSH0 DUP3 ADD MSTORE PUSH32 0x696E6720737461746520746F2073686970000000000000000000000000000000 PUSH1 0x20 DUP3 ADD MSTORE POP JUMP JUMPDEST PUSH0 PUSH2 0x3033 PUSH1 0x31 DUP4 PUSH2 0x2878 JUMP JUMPDEST SWAP2 POP PUSH2 0x303E DUP3 PUSH2 0x2FD9 JUMP JUMPDEST PUSH1 0x40 DUP3 ADD SWAP1 POP SWAP2 SWAP1 POP JUMP JUMPDEST PUSH0 PUSH1 0x20 DUP3 ADD SWAP1 POP DUP2 DUP2 SUB PUSH0 DUP4 ADD MSTORE PUSH2 0x3060 DUP2 PUSH2 0x3027 JUMP JUMPDEST SWAP1 POP SWAP2 SWAP1 POP JUMP JUMPDEST PUSH0 DUP2 SLOAD PUSH2 0x3073 DUP2 PUSH2 0x2C74 JUMP JUMPDEST PUSH2 0x307D DUP2 DUP7 PUSH2 0x2878 JUMP JUMPDEST SWAP5 POP PUSH1 0x1 DUP3 AND PUSH0 DUP2 EQ PUSH2 0x3097 JUMPI PUSH1 0x1 DUP2 EQ PUSH2 0x30AD JUMPI PUSH2 0x30DF JUMP JUMPDEST PUSH1 0xFF NOT DUP4 AND DUP7 MSTORE DUP2 ISZERO ISZERO PUSH1 0x20 MUL DUP7 ADD SWAP4 POP PUSH2 0x30DF JUMP JUMPDEST PUSH2 0x30B6 DUP6 PUSH2 0x2CA4 JUMP JUMPDEST PUSH0 JUMPDEST DUP4 DUP2 LT ISZERO PUSH2 0x30D7 JUMPI DUP2 SLOAD DUP2 DUP10 ADD MSTORE PUSH1 0x1 DUP3 ADD SWAP2 POP PUSH1 0x20 DUP2 ADD SWAP1 POP PUSH2 0x30B8 JUMP JUMPDEST DUP1 DUP9 ADD SWAP6 POP POP POP JUMPDEST POP POP POP SWAP3 SWAP2 POP POP JUMP JUMPDEST PUSH0 PUSH1 0x40 DUP3 ADD SWAP1 POP DUP2 DUP2 SUB PUSH0 DUP4 ADD MSTORE PUSH2 0x3100 DUP2 DUP6 PUSH2 0x3067 JUMP JUMPDEST SWAP1 POP DUP2 DUP2 SUB PUSH1 0x20 DUP4 ADD MSTORE PUSH2 0x3114 DUP2 DUP5 PUSH2 0x3067 JUMP JUMPDEST SWAP1 POP SWAP4 SWAP3 POP POP POP JUMP JUMPDEST PUSH32 0x41646472657373206E6F7420417574686F72697A656420526563696576657220 PUSH0 DUP3 ADD MSTORE PUSH32 0x666F7220746869732042696C6C206F66204C616E64696E672049440000000000 PUSH1 0x20 DUP3 ADD MSTORE POP JUMP JUMPDEST PUSH0 PUSH2 0x3177 PUSH1 0x3B DUP4 PUSH2 0x2878 JUMP JUMPDEST SWAP2 POP PUSH2 0x3182 DUP3 PUSH2 0x311D JUMP JUMPDEST PUSH1 0x40 DUP3 ADD SWAP1 POP SWAP2 SWAP1 POP JUMP JUMPDEST PUSH0 PUSH1 0x20 DUP3 ADD SWAP1 POP DUP2 DUP2 SUB PUSH0 DUP4 ADD MSTORE PUSH2 0x31A4 DUP2 PUSH2 0x316B JUMP JUMPDEST SWAP1 POP SWAP2 SWAP1 POP JUMP JUMPDEST PUSH32 0x44656C69657665727920737461747573206D75737420626520696E2053686970 PUSH0 DUP3 ADD MSTORE PUSH32 0x70696E6720737461746520746F20736869700000000000000000000000000000 PUSH1 0x20 DUP3 ADD MSTORE POP JUMP JUMPDEST PUSH0 PUSH2 0x3205 PUSH1 0x32 DUP4 PUSH2 0x2878 JUMP JUMPDEST SWAP2 POP PUSH2 0x3210 DUP3 PUSH2 0x31AB JUMP JUMPDEST PUSH1 0x40 DUP3 ADD SWAP1 POP SWAP2 SWAP1 POP JUMP JUMPDEST PUSH0 PUSH1 0x20 DUP3 ADD SWAP1 POP DUP2 DUP2 SUB PUSH0 DUP4 ADD MSTORE PUSH2 0x3232 DUP2 PUSH2 0x31F9 JUMP JUMPDEST SWAP1 POP SWAP2 SWAP1 POP JUMP JUMPDEST PUSH0 DUP2 SWAP1 POP SWAP3 SWAP2 POP POP JUMP JUMPDEST PUSH0 DUP2 SLOAD PUSH2 0x324F DUP2 PUSH2 0x2C74 JUMP JUMPDEST PUSH2 0x3259 DUP2 DUP7 PUSH2 0x3239 JUMP JUMPDEST SWAP5 POP PUSH1 0x1 DUP3 AND PUSH0 DUP2 EQ PUSH2 0x3273 JUMPI PUSH1 0x1 DUP2 EQ PUSH2 0x3288 JUMPI PUSH2 0x32BA JUMP JUMPDEST PUSH1 0xFF NOT DUP4 AND DUP7 MSTORE DUP2 ISZERO ISZERO DUP3 MUL DUP7 ADD SWAP4 POP PUSH2 0x32BA JUMP JUMPDEST PUSH2 0x3291 DUP6 PUSH2 0x2CA4 JUMP JUMPDEST PUSH0 JUMPDEST DUP4 DUP2 LT ISZERO PUSH2 0x32B2 JUMPI DUP2 SLOAD DUP2 DUP10 ADD MSTORE PUSH1 0x1 DUP3 ADD SWAP2 POP PUSH1 0x20 DUP2 ADD SWAP1 POP PUSH2 0x3293 JUMP JUMPDEST DUP4 DUP9 ADD SWAP6 POP POP POP JUMPDEST POP POP POP SWAP3 SWAP2 POP POP JUMP JUMPDEST PUSH0 PUSH2 0x32CE DUP3 DUP5 PUSH2 0x3243 JUMP JUMPDEST SWAP2 POP DUP2 SWAP1 POP SWAP3 SWAP2 POP POP JUMP JUMPDEST PUSH32 0x43757272656E74206C6F636174696F6E206F6620636172676F206D7573742062 PUSH0 DUP3 ADD MSTORE PUSH32 0x652061742066696E616C2064657374696E6174696F6E20746F2072656A656374 PUSH1 0x20 DUP3 ADD MSTORE POP JUMP JUMPDEST PUSH0 PUSH2 0x3333 PUSH1 0x40 DUP4 PUSH2 0x2878 JUMP JUMPDEST SWAP2 POP PUSH2 0x333E DUP3 PUSH2 0x32D9 JUMP JUMPDEST PUSH1 0x40 DUP3 ADD SWAP1 POP SWAP2 SWAP1 POP JUMP JUMPDEST PUSH0 PUSH1 0x20 DUP3 ADD SWAP1 POP DUP2 DUP2 SUB PUSH0 DUP4 ADD MSTORE PUSH2 0x3360 DUP2 PUSH2 0x3327 JUMP JUMPDEST SWAP1 POP SWAP2 SWAP1 POP JUMP JUMPDEST PUSH32 0x44656C6965766572792063616E6E6F74206265206163636570746564206F7220 PUSH0 DUP3 ADD MSTORE PUSH32 0x72656A656374656420696E206F7264657220746F2063616E63656C0000000000 PUSH1 0x20 DUP3 ADD MSTORE POP JUMP JUMPDEST PUSH0 PUSH2 0x33C1 PUSH1 0x3B DUP4 PUSH2 0x2878 JUMP JUMPDEST SWAP2 POP PUSH2 0x33CC DUP3 PUSH2 0x3367 JUMP JUMPDEST PUSH1 0x40 DUP3 ADD SWAP1 POP SWAP2 SWAP1 POP JUMP JUMPDEST PUSH0 PUSH1 0x20 DUP3 ADD SWAP1 POP DUP2 DUP2 SUB PUSH0 DUP4 ADD MSTORE PUSH2 0x33EE DUP2 PUSH2 0x33B5 JUMP JUMPDEST SWAP1 POP SWAP2 SWAP1 POP JUMP JUMPDEST PUSH32 0x43757272656E74206C6F636174696F6E206F6620636172676F2063616E6E6F74 PUSH0 DUP3 ADD MSTORE PUSH32 0x2062652061742066696E616C2064657374696E6174696F6E20746F2063616E63 PUSH1 0x20 DUP3 ADD MSTORE PUSH32 0x656C000000000000000000000000000000000000000000000000000000000000 PUSH1 0x40 DUP3 ADD MSTORE POP JUMP JUMPDEST PUSH0 PUSH2 0x3475 PUSH1 0x42 DUP4 PUSH2 0x2878 JUMP JUMPDEST SWAP2 POP PUSH2 0x3480 DUP3 PUSH2 0x33F5 JUMP JUMPDEST PUSH1 0x60 DUP3 ADD SWAP1 POP SWAP2 SWAP1 POP JUMP JUMPDEST PUSH0 PUSH1 0x20 DUP3 ADD SWAP1 POP DUP2 DUP2 SUB PUSH0 DUP4 ADD MSTORE PUSH2 0x34A2 DUP2 PUSH2 0x3469 JUMP JUMPDEST SWAP1 POP SWAP2 SWAP1 POP JUMP JUMPDEST PUSH32 0x41646472657373206E6F7420417574686F72697A65642053656E64657220666F PUSH0 DUP3 ADD MSTORE PUSH32 0x7220746869732042696C6C206F66204C616E64696E6720494400000000000000 PUSH1 0x20 DUP3 ADD MSTORE POP JUMP JUMPDEST PUSH0 PUSH2 0x3503 PUSH1 0x39 DUP4 PUSH2 0x2878 JUMP JUMPDEST SWAP2 POP PUSH2 0x350E DUP3 PUSH2 0x34A9 JUMP JUMPDEST PUSH1 0x40 DUP3 ADD SWAP1 POP SWAP2 SWAP1 POP JUMP JUMPDEST PUSH0 PUSH1 0x20 DUP3 ADD SWAP1 POP DUP2 DUP2 SUB PUSH0 DUP4 ADD MSTORE PUSH2 0x3530 DUP2 PUSH2 0x34F7 JUMP JUMPDEST SWAP1 POP SWAP2 SWAP1 POP JUMP JUMPDEST PUSH32 0x43757272656E74206C6F636174696F6E206F6620636172676F206D7573742062 PUSH0 DUP3 ADD MSTORE PUSH32 0x652061742066696E616C2064657374696E6174696F6E20746F20616363657074 PUSH1 0x20 DUP3 ADD MSTORE POP JUMP JUMPDEST PUSH0 PUSH2 0x3591 PUSH1 0x40 DUP4 PUSH2 0x2878 JUMP JUMPDEST SWAP2 POP PUSH2 0x359C DUP3 PUSH2 0x3537 JUMP JUMPDEST PUSH1 0x40 DUP3 ADD SWAP1 POP SWAP2 SWAP1 POP JUMP JUMPDEST PUSH0 PUSH1 0x20 DUP3 ADD SWAP1 POP DUP2 DUP2 SUB PUSH0 DUP4 ADD MSTORE PUSH2 0x35BE DUP2 PUSH2 0x3585 JUMP JUMPDEST SWAP1 POP SWAP2 SWAP1 POP JUMP INVALID LOG2 PUSH5 0x6970667358 0x22 SLT KECCAK256 ORIGIN 0xEA SWAP5 PUSH5 0x52A723C460 0xF LT 0xF7 0x2B SWAP15 DUP14 0xD5 REVERT 0xD0 0xE3 RETURN JUMPI LOG2 XOR SWAP13 CALLER PUSH0 SAR CALLDATACOPY PUSH2 0x5C59 PUSH8 0x64736F6C63430008 BYTE STOP CALLER "
		},
		"gasEstimates": {
			"creation": {
				"codeDepositCost": "2763800",
				"executionCost": "infinite",
				"totalCost": "infinite"
			},
			"external": {
				"": "242",
				"acceptBol(uint256)": "infinite",
				"addBillofLanding(address,address,string,string,uint256,uint256,string,string)": "infinite",
				"bolId(uint256)": "infinite",
				"cancelBol(uint256)": "infinite",
				"companyInfo(address)": "infinite",
				"confirmReceipt()": "210",
				"fundMe()": "142",
				"getBillOfLading(uint256)": "infinite",
				"getLatestLocation(uint256)": "infinite",
				"location(uint256)": "infinite",
				"orderId(uint256)": "infinite",
				"owner()": "2626",
				"registerCompany(string,string,uint256,string,string)": "infinite",
				"rejectBol(uint256)": "infinite",
				"renounceOwnership()": "infinite",
				"shipBol(uint256,address)": "62827",
				"transferAmount(address,uint256)": "662",
				"transferOwnership(address)": "infinite",
				"transporter(uint256)": "2895",
				"updateLocation(string,uint256)": "infinite",
				"widthdrawAmount(uint256)": "401"
			},
			"internal": {
				"addReceiverRole(address,uint256)": "infinite",
				"addSenderRole(address,uint256)": "infinite"
			}
		},
		"methodIdentifiers": {
			"acceptBol(uint256)": "e9dd8ed8",
			"addBillofLanding(address,address,string,string,uint256,uint256,string,string)": "1d3594bc",
			"bolId(uint256)": "cf7496fb",
			"cancelBol(uint256)": "d45ed04c",
			"companyInfo(address)": "e3e436fb",
			"confirmReceipt()": "7d94ad98",
			"fundMe()": "b6a324e0",
			"getBillOfLading(uint256)": "514f7d2c",
			"getLatestLocation(uint256)": "5c61f40e",
			"location(uint256)": "c9990aa6",
			"orderId(uint256)": "707fb79e",
			"owner()": "8da5cb5b",
			"registerCompany(string,string,uint256,string,string)": "d3b37b40",
			"rejectBol(uint256)": "cfe25e20",
			"renounceOwnership()": "715018a6",
			"shipBol(uint256,address)": "d6787f39",
			"transferAmount(address,uint256)": "d7081e03",
			"transferOwnership(address)": "f2fde38b",
			"transporter(uint256)": "403a3696",
			"updateLocation(string,uint256)": "8c9d9776",
			"widthdrawAmount(uint256)": "12c0a1ab"
		}
	},
	"abi": [
		{
			"inputs": [],
			"stateMutability": "nonpayable",
			"type": "constructor"
		},
		{
			"inputs": [
				{
					"internalType": "address",
					"name": "owner",
					"type": "address"
				}
			],
			"name": "OwnableInvalidOwner",
			"type": "error"
		},
		{
			"inputs": [
				{
					"internalType": "address",
					"name": "account",
					"type": "address"
				}
			],
			"name": "OwnableUnauthorizedAccount",
			"type": "error"
		},
		{
			"anonymous": false,
			"inputs": [
				{
					"indexed": true,
					"internalType": "address",
					"name": "previousOwner",
					"type": "address"
				},
				{
					"indexed": true,
					"internalType": "address",
					"name": "newOwner",
					"type": "address"
				}
			],
			"name": "OwnershipTransferred",
			"type": "event"
		},
		{
			"anonymous": false,
			"inputs": [
				{
					"indexed": false,
					"internalType": "uint256",
					"name": "_orderId",
					"type": "uint256"
				}
			],
			"name": "billOfLandingCreated",
			"type": "event"
		},
		{
			"anonymous": false,
			"inputs": [
				{
					"indexed": false,
					"internalType": "uint256",
					"name": "_orderId",
					"type": "uint256"
				}
			],
			"name": "billOfLandingUpdated",
			"type": "event"
		},
		{
			"anonymous": false,
			"inputs": [
				{
					"indexed": true,
					"internalType": "address",
					"name": "_sender",
					"type": "address"
				},
				{
					"indexed": false,
					"internalType": "address",
					"name": "_receiver",
					"type": "address"
				},
				{
					"indexed": false,
					"internalType": "string",
					"name": "_material",
					"type": "string"
				},
				{
					"indexed": false,
					"internalType": "uint256",
					"name": "_materialCount",
					"type": "uint256"
				}
			],
			"name": "bolCreated",
			"type": "event"
		},
		{
			"anonymous": false,
			"inputs": [
				{
					"indexed": true,
					"internalType": "address",
					"name": "_sender",
					"type": "address"
				},
				{
					"indexed": false,
					"internalType": "string",
					"name": "_specialInstructions",
					"type": "string"
				},
				{
					"indexed": false,
					"internalType": "enum Shipping.Status",
					"name": "_deliveryStatus",
					"type": "uint8"
				}
			],
			"name": "bolReceived",
			"type": "event"
		},
		{
			"anonymous": false,
			"inputs": [
				{
					"indexed": true,
					"internalType": "address",
					"name": "_sender",
					"type": "address"
				},
				{
					"indexed": false,
					"internalType": "string",
					"name": "_specialInstructions",
					"type": "string"
				},
				{
					"indexed": false,
					"internalType": "enum Shipping.Status",
					"name": "_deliveryStatus",
					"type": "uint8"
				}
			],
			"name": "bolShipped",
			"type": "event"
		},
		{
			"anonymous": false,
			"inputs": [
				{
					"indexed": false,
					"internalType": "uint256",
					"name": "_bolId",
					"type": "uint256"
				}
			],
			"name": "cancelledBol",
			"type": "event"
		},
		{
			"anonymous": false,
			"inputs": [
				{
					"indexed": false,
					"internalType": "address",
					"name": "_sender",
					"type": "address"
				},
				{
					"indexed": false,
					"internalType": "address",
					"name": "_receiver",
					"type": "address"
				},
				{
					"indexed": false,
					"internalType": "uint256",
					"name": "_orderId",
					"type": "uint256"
				}
			],
			"name": "payment",
			"type": "event"
		},
		{
			"anonymous": false,
			"inputs": [
				{
					"indexed": false,
					"internalType": "uint256",
					"name": "_bolId",
					"type": "uint256"
				}
			],
			"name": "rejectedBol",
			"type": "event"
		},
		{
			"anonymous": false,
			"inputs": [
				{
					"indexed": true,
					"internalType": "address",
					"name": "_sender",
					"type": "address"
				},
				{
					"indexed": false,
					"internalType": "string",
					"name": "_currentLocation",
					"type": "string"
				},
				{
					"indexed": false,
					"internalType": "string",
					"name": "_finalDestination",
					"type": "string"
				}
			],
			"name": "updatedLocation",
			"type": "event"
		},
		{
			"anonymous": false,
			"inputs": [
				{
					"indexed": false,
					"internalType": "address",
					"name": "_owner",
					"type": "address"
				}
			],
			"name": "withdrawal",
			"type": "event"
		},
		{
			"stateMutability": "payable",
			"type": "fallback"
		},
		{
			"inputs": [
				{
					"internalType": "uint256",
					"name": "_bolId",
					"type": "uint256"
				}
			],
			"name": "acceptBol",
			"outputs": [
				{
					"internalType": "enum Shipping.Status",
					"name": "",
					"type": "uint8"
				}
			],
			"stateMutability": "nonpayable",
			"type": "function"
		},
		{
			"inputs": [
				{
					"internalType": "address",
					"name": "_sender",
					"type": "address"
				},
				{
					"internalType": "address",
					"name": "_receiver",
					"type": "address"
				},
				{
					"internalType": "string",
					"name": "_currentLocation",
					"type": "string"
				},
				{
					"internalType": "string",
					"name": "_material",
					"type": "string"
				},
				{
					"internalType": "uint256",
					"name": "_materialCount",
					"type": "uint256"
				},
				{
					"internalType": "uint256",
					"name": "_materialCost",
					"type": "uint256"
				},
				{
					"internalType": "string",
					"name": "_specialInstructions",
					"type": "string"
				},
				{
					"internalType": "string",
					"name": "_finalDestination",
					"type": "string"
				}
			],
			"name": "addBillofLanding",
			"outputs": [
				{
					"internalType": "uint256",
					"name": "",
					"type": "uint256"
				}
			],
			"stateMutability": "nonpayable",
			"type": "function"
		},
		{
			"inputs": [
				{
					"internalType": "uint256",
					"name": "",
					"type": "uint256"
				}
			],
			"name": "bolId",
			"outputs": [
				{
					"internalType": "address",
					"name": "sender",
					"type": "address"
				},
				{
					"internalType": "address",
					"name": "receiver",
					"type": "address"
				},
				{
					"internalType": "string",
					"name": "currentLocation",
					"type": "string"
				},
				{
					"internalType": "string",
					"name": "material",
					"type": "string"
				},
				{
					"internalType": "uint256",
					"name": "materialCount",
					"type": "uint256"
				},
				{
					"internalType": "uint256",
					"name": "materialCost",
					"type": "uint256"
				},
				{
					"internalType": "string",
					"name": "specialInstructions",
					"type": "string"
				},
				{
					"internalType": "string",
					"name": "finalDestination",
					"type": "string"
				},
				{
					"internalType": "enum Shipping.Status",
					"name": "deliveryStatus",
					"type": "uint8"
				}
			],
			"stateMutability": "view",
			"type": "function"
		},
		{
			"inputs": [
				{
					"internalType": "uint256",
					"name": "_bolId",
					"type": "uint256"
				}
			],
			"name": "cancelBol",
			"outputs": [
				{
					"internalType": "enum Shipping.Status",
					"name": "",
					"type": "uint8"
				}
			],
			"stateMutability": "nonpayable",
			"type": "function"
		},
		{
			"inputs": [
				{
					"internalType": "address",
					"name": "",
					"type": "address"
				}
			],
			"name": "companyInfo",
			"outputs": [
				{
					"internalType": "string",
					"name": "name",
					"type": "string"
				},
				{
					"internalType": "string",
					"name": "email",
					"type": "string"
				},
				{
					"internalType": "uint256",
					"name": "phoneNo",
					"type": "uint256"
				},
				{
					"internalType": "string",
					"name": "website",
					"type": "string"
				},
				{
					"internalType": "string",
					"name": "companyAddress",
					"type": "string"
				}
			],
			"stateMutability": "view",
			"type": "function"
		},
		{
			"inputs": [],
			"name": "confirmReceipt",
			"outputs": [],
			"stateMutability": "nonpayable",
			"type": "function"
		},
		{
			"inputs": [],
			"name": "fundMe",
			"outputs": [],
			"stateMutability": "payable",
			"type": "function"
		},
		{
			"inputs": [
				{
					"internalType": "uint256",
					"name": "_id",
					"type": "uint256"
				}
			],
			"name": "getBillOfLading",
			"outputs": [
				{
					"components": [
						{
							"internalType": "address",
							"name": "sender",
							"type": "address"
						},
						{
							"internalType": "address",
							"name": "receiver",
							"type": "address"
						},
						{
							"internalType": "string",
							"name": "currentLocation",
							"type": "string"
						},
						{
							"internalType": "string",
							"name": "material",
							"type": "string"
						},
						{
							"internalType": "uint256",
							"name": "materialCount",
							"type": "uint256"
						},
						{
							"internalType": "uint256",
							"name": "materialCost",
							"type": "uint256"
						},
						{
							"internalType": "string",
							"name": "specialInstructions",
							"type": "string"
						},
						{
							"internalType": "string",
							"name": "finalDestination",
							"type": "string"
						},
						{
							"internalType": "enum Shipping.Status",
							"name": "deliveryStatus",
							"type": "uint8"
						}
					],
					"internalType": "struct Shipping.Billoflading",
					"name": "",
					"type": "tuple"
				}
			],
			"stateMutability": "view",
			"type": "function"
		},
		{
			"inputs": [
				{
					"internalType": "uint256",
					"name": "_id",
					"type": "uint256"
				}
			],
			"name": "getLatestLocation",
			"outputs": [
				{
					"internalType": "string",
					"name": "",
					"type": "string"
				}
			],
			"stateMutability": "view",
			"type": "function"
		},
		{
			"inputs": [
				{
					"internalType": "uint256",
					"name": "",
					"type": "uint256"
				}
			],
			"name": "location",
			"outputs": [
				{
					"internalType": "string",
					"name": "",
					"type": "string"
				}
			],
			"stateMutability": "view",
			"type": "function"
		},
		{
			"inputs": [
				{
					"internalType": "uint256",
					"name": "",
					"type": "uint256"
				}
			],
			"name": "orderId",
			"outputs": [
				{
					"internalType": "uint256",
					"name": "orderId",
					"type": "uint256"
				},
				{
					"internalType": "address",
					"name": "senderOfGoods",
					"type": "address"
				},
				{
					"internalType": "address",
					"name": "receiverOfBill",
					"type": "address"
				},
				{
					"internalType": "enum Shipping.Status",
					"name": "deliveryStatus",
					"type": "uint8"
				}
			],
			"stateMutability": "view",
			"type": "function"
		},
		{
			"inputs": [],
			"name": "owner",
			"outputs": [
				{
					"internalType": "address",
					"name": "",
					"type": "address"
				}
			],
			"stateMutability": "view",
			"type": "function"
		},
		{
			"inputs": [
				{
					"internalType": "string",
					"name": "_name",
					"type": "string"
				},
				{
					"internalType": "string",
					"name": "_email",
					"type": "string"
				},
				{
					"internalType": "uint256",
					"name": "_phoneNo",
					"type": "uint256"
				},
				{
					"internalType": "string",
					"name": "_website",
					"type": "string"
				},
				{
					"internalType": "string",
					"name": "_companyaddress",
					"type": "string"
				}
			],
			"name": "registerCompany",
			"outputs": [],
			"stateMutability": "nonpayable",
			"type": "function"
		},
		{
			"inputs": [
				{
					"internalType": "uint256",
					"name": "_bolId",
					"type": "uint256"
				}
			],
			"name": "rejectBol",
			"outputs": [
				{
					"internalType": "enum Shipping.Status",
					"name": "",
					"type": "uint8"
				}
			],
			"stateMutability": "nonpayable",
			"type": "function"
		},
		{
			"inputs": [],
			"name": "renounceOwnership",
			"outputs": [],
			"stateMutability": "nonpayable",
			"type": "function"
		},
		{
			"inputs": [
				{
					"internalType": "uint256",
					"name": "_bolId",
					"type": "uint256"
				},
				{
					"internalType": "address",
					"name": "_transporter",
					"type": "address"
				}
			],
			"name": "shipBol",
			"outputs": [
				{
					"internalType": "enum Shipping.Status",
					"name": "",
					"type": "uint8"
				}
			],
			"stateMutability": "nonpayable",
			"type": "function"
		},
		{
			"inputs": [
				{
					"internalType": "address",
					"name": "_to",
					"type": "address"
				},
				{
					"internalType": "uint256",
					"name": "_amount",
					"type": "uint256"
				}
			],
			"name": "transferAmount",
			"outputs": [],
			"stateMutability": "payable",
			"type": "function"
		},
		{
			"inputs": [
				{
					"internalType": "address",
					"name": "newOwner",
					"type": "address"
				}
			],
			"name": "transferOwnership",
			"outputs": [],
			"stateMutability": "nonpayable",
			"type": "function"
		},
		{
			"inputs": [
				{
					"internalType": "uint256",
					"name": "",
					"type": "uint256"
				}
			],
			"name": "transporter",
			"outputs": [
				{
					"internalType": "address",
					"name": "",
					"type": "address"
				}
			],
			"stateMutability": "view",
			"type": "function"
		},
		{
			"inputs": [
				{
					"internalType": "string",
					"name": "_currentLocation",
					"type": "string"
				},
				{
					"internalType": "uint256",
					"name": "_cargoId",
					"type": "uint256"
				}
			],
			"name": "updateLocation",
			"outputs": [],
			"stateMutability": "nonpayable",
			"type": "function"
		},
		{
			"inputs": [
				{
					"internalType": "uint256",
					"name": "_amount",
					"type": "uint256"
				}
			],
			"name": "widthdrawAmount",
			"outputs": [],
			"stateMutability": "payable",
			"type": "function"
		},
		{
			"stateMutability": "payable",
			"type": "receive"
		}
	]
}